:020000040000FA
:10000000B8030020650100004B0A00005109000000
:1000100000000000000000000000000000000000E0
:10002000000000000000000000000000F90A0000CD
:1000300000000000000000004D0A0000FB0A000064
:1000400077010000770100007701000077010000D0
:1000500077010000770100007701000077010000C0
:1000600077010000770100007701000077010000B0
:1000700077010000770100007701000077010000A0
:100080007701000077010000770100007701000090
:100090007701000077010000770100007701000080
:1000A0007701000077010000000000000000000060
:1000B0007701000077010000770100007701000060
:1000C00000F002F800F03EF80CA030C80838241800
:1000D0002D18A246671EAB4654465D46AC4201D180
:1000E00000F030F87E460F3E0FCCB6460126334274
:1000F00000D0FB1AA246AB46334318471811000044
:1001000038110000103A02D378C878C1FAD85207E3
:1001100001D330C830C101D504680C6070470000BD
:100120000023002400250026103A01D378C1FBD813
:10013000520700D330C100D50B6070471FB51FBDFB
:1001400010B510BD00F0DAF81146FFF7F7FF00F028
:100150006BFF00F0F2F803B4FFF7F2FF03BC00F00E
:10016000F9F800000748804707480047FEE7FEE728
:10017000FEE7FEE7FEE7FEE704480549054A064BB1
:1001800070470000490B0000C1000000B8000020CB
:10019000B8030020B8010020B801002000220309A4
:1001A0008B422CD3030A8B4211D300239C464EE092
:1001B00003460B433CD4002243088B4231D303094E
:1001C0008B421CD3030A8B4201D394463FE0C30900
:1001D0008B4201D3CB01C01A524183098B4201D318
:1001E0008B01C01A524143098B4201D34B01C01A03
:1001F000524103098B4201D30B01C01A5241C3087B
:100200008B4201D3CB00C01A524183088B4201D3E9
:100210008B00C01A524143088B4201D34B00C01AD5
:100220005241411A00D201465241104670475DE0EA
:10023000CA0F00D04942031000D34042534000226D
:100240009C4603098B422DD3030A8B4212D3FC2216
:10025000890112BA030A8B420CD3890192118B4295
:1002600008D3890192118B4204D389013AD09211AB
:1002700000E08909C3098B4201D3CB01C01A524166
:1002800083098B4201D38B01C01A524143098B422F
:1002900001D34B01C01A524103098B4201D30B0118
:1002A000C01A5241C3088B4201D3CB00C01A52413D
:1002B00083088B4201D38B00C01A5241D9D2430824
:1002C0008B4201D34B00C01A5241411A00D2014661
:1002D000634652415B10104601D34042002B00D5CB
:1002E0004942704763465B1000D3404201B500208D
:1002F000C046C04602BD704770477047754600F063
:1003000025F8AE46050069465346C008C00085463C
:1003100018B020B5FFF730FF60BC00274908B6468B
:100320000026C0C5C0C5C0C5C0C5C0C5C0C5C0C504
:10033000C0C5403D49008D46704710B50446C046D3
:10034000C0462046FFF707FF10BD00000048704779
:100350005400002001491820ABBEFEE72600020031
:10036000704710B500F0CAFD10BD000010B503497C
:100370000348044A1268904710BD00008410000032
:10038000004100402800002070B503460C46082CB0
:100390000CDAA506280E99680F2585400E46AE4357
:1003A000314615468540294399600EE02546083DB3
:1003B000ECB2A506280ED9680F2585400E46AE433F
:1003C0003146154685402943D96070BDF0B50346D6
:1003D0001446032C00D101224E06350E1868032660
:1003E000AE400746B74338461646AE403043186025
:1003F000012C01D0032C0BD1586801268E400746F2
:10040000B7433846032C02D101268E403043586052
:10041000F0BD000000B5024618484169130000F025
:100420005FFD0906090C0F1215191D212500012079
:1004300001431DE0042001431AE01020014317E0AE
:100440004020014314E08020014311E0012000031B
:1004500001430DE001204003014309E00120800336
:10046000014305E00120C003014301E0012000BD7C
:1004700000BF024841610020F9E70000005C004035
:100480000146002901D10120704707480068086033
:100490004B20400248600020087203204872002070
:1004A0008872C87200BFEFE70800002001460548C7
:1004B000006840084000CA07D20F1043014A10608C
:1004C00000207047005C004010B50446002C01D1AC
:1004D000012010BD0121C80300F0F4F80120C00381
:1004E00000F000F9204600F07BFD207A4001617A9F
:1004F00049020843A17A09030843E17AC901084384
:100500000C300449086000F041F800F03FF800208A
:10051000DFE70000005C0040F0B504460D461646DB
:10052000224629460023012E19D115E0154F03E07C
:10053000002F00D106E07F1E13484069C007C00F9E
:100540000028F5D000BF002F00D107E000F01EF812
:100550001070521C491E5B1C0029E7D110E00CE012
:1005600009484069C007C00F002800D107E000F02B
:100570000DF81070521C5B1C491E0029F0D100BF01
:100580001846F0BDFFFF0000005C00400148806994
:10059000C0B27047005C0040F7B5009D019C00268A
:1005A000029801281CD118E028786D1C00F030F862
:1005B000154F03E0002F00D106E07F1E134840696D
:1005C000042108400028F5D000BF002F00D106E02C
:1005D0000120FFF71FFF641E761C002CE4D110E001
:1005E0000CE00A48406904210840002800D107E0D7
:1005F00028786D1C00F00CF8641E761C002CF0D1DD
:1006000000BF3046FEBD0000FFFF0000005C004060
:1006100001460248C161002070470000005C0040B4
:100620000C4A52681207D20F002A05D1094A5268B3
:10063000094B1A43074B5A600C2202430A43054BED
:100640005A611A46526980239A438032014B5A619B
:100650007047000000180040080007A50146054A41
:10066000526890B2044A104302468A431046014A37
:100670005060704700180040000007A5054A526806
:10068000054B1A40054BD2180A430243014B5A60EE
:100690007047000000180040FFCF0000000007A5D1
:1006A000014A10625162704700180040044A126803
:1006B0008243034B1A601A4612680A431A60704755
:1006C00040180040002905D0054A526A0243044BF5
:1006D0005A6204E0024A526A8243014B5A627047EE
:1006E00000180040054A5062002101E000BF491C8B
:1006F0000A29FBD30022014B5A6270474018004080
:1007000002490143024A11607047000000000A5785
:1007100000180040014A9060D16070470018004006
:100720000146002901D1012070474B20400208609A
:100730000320087100204871887100BFF4E70000B1
:1007400070B504460E46002C01D1012070BD394819
:10075000844203D101210420FFF7B4FF36488442CC
:1007600003D101210820FFF7ADFF01E02068C5B2E9
:100770006069C007C00F0028F8D100BF6069202160
:1007800008400028FAD000206060E06020616069C5
:10079000C5B2A068C5B2294800682949086020464A
:1007A000316800F04FFCE068402108400546307990
:1007B000002806D0012806D0022807D0032808D137
:1007C00008E000BF09E00120054306E002200543E0
:1007D00003E000BF0320054300BF00BF707900287D
:1007E00018D0082005437079012806D0022806D0C9
:1007F000032807D004280BD107E000BF09E0102030
:10080000054306E02020054303E03020054300E0D7
:1008100000BF00BFB079002805D0012802D1042014
:10082000054301E000BF00BF00BF6806400EE06066
:1008300000208BE7004000400041004008000020FD
:100840001C000020FFB504461646019B32460025D9
:100850000398012819D115E0164F03E0002F00D1AD
:1008600005E07F1E6069C007C00F0028F6D000BFFA
:10087000002F00D108E0204600F01EF818705B1C25
:10088000521E6D1C002AE7D110E00CE06069C00721
:10089000C00F002800D108E0204600F00DF81870C5
:1008A0005B1C521E6D1C002AF0D100BF284604B00C
:1008B000F0BD0000FFFF000001460868C0B27047AD
:1008C000FFB50446019D029B00260398012820D114
:1008D00015E01A4F03E0002F00D105E07F1E60698C
:1008E000202108400028F6D000BF002F00D108E0EA
:1008F00029786D1C204600F023F85B1E761C002B27
:10090000E7D100BF00BF60694006C00F0028FAD0E1
:1009100010E00CE0606920210840002800D108E0C8
:1009200029786D1C204600F00BF85B1E761C002B0E
:10093000F0D100BF304604B0F0BD0000FFFF000062
:100940000246002A01D10120704711600020FBE718
:1009500000BFFEE70EB518A12048214A1268904753
:1009600020A11E481E4A12689047022203212648F1
:10097000FFF72CFD022203212348FFF705FD022289
:1009800004212148FFF722FD022204211E48FFF71F
:10099000FBFC6846FFF774FD002103208002FFF78F
:1009A00085FE1A48006800906846FFF78DFD01201B
:1009B000FFF77CFD0EBD00005042332077617320AD
:1009C000636F6E666967757265642061732061206C
:1009D0004C505458442E200A0D00000000410040A5
:1009E000280000205042342077617320636F6E66C8
:1009F0006967757265642061732061204C5052589C
:100A0000442E200A0D0A0D000001003008000020CD
:100A10009AB019E00122642101A8FFF77DFD044688
:100A2000002C11D00122214601A8FFF7B5FD601E60
:100A300001A9085C0D2807D10A2069460871012226
:100A4000114601A8FFF7A8FDE4E7704770470000D2
:100A500010B500213F20FFF723FE1E4803210907A0
:100A6000086000204860C8608860086188611A4892
:100A70001A49086000204860C86088600861886181
:100A800017481849086000204860C860886009203D
:100A90008002086100208861134814490860002022
:100AA0004860886001208002086100208861FF2082
:100AB00056300F49086000204860886008618861EE
:100AC00055200C49086000204860886008618861F2
:100AD00010BD000055550500555555010001003069
:100AE00055695500000200305559000000030030E0
:100AF00000040030000500307047704710B5002139
:100B00000F20FFF7BBFD002400E0641C7D20C00027
:100B10008442FAD30020FFF7F3FD00210420FFF701
:100B2000F9FD064806490860064908600320FFF7FA
:100B300095FD00214020FFF773FD10BD0048E8013E
:100B4000040000200800002000BF0548806AC0B2F1
:100B50005528FAD172B6034803490860704700006F
:100B600000F00040A095695A001A004070B5054693
:100B70000C466869C007C00F002801D1207070BD05
:100B80002846FFF799FE20700120F8E738B50446A3
:100B90000021009101231A4669462046FFF752FEC4
:100BA0006846007838BD13B5044601231A4601A9EA
:100BB0002046FFF785FE1CBDFEB505460C460A2102
:100BC0002046FFF7F5FACEB20A212046FFF7F0FAE9
:100BD0000A210090FFF7ECFACFB264212046FFF71C
:100BE000E7FA0A210090FFF7E3FAC8B201900198F2
:100BF0003030C1B22846FFF7D6FF38463030C1B298
:100C00002846FFF7D0FF30463030C1B22846FFF704
:100C1000CAFFFEBDF0B585B005460C460A21204648
:100C2000FFF7C6FACEB20A212046FFF7C1FA0A2121
:100C30000090FFF7BDFACFB264212046FFF7B8FA63
:100C40000A210090FFF7B4FAC8B203907D21C900D1
:100C50002046FFF7ADFA0A210090FFF7A9FAC8B2C3
:100C6000029015492046FFF7A3FA0A210090FFF7EA
:100C70009FFAC8B2019001983030C1B22846FFF700
:100C800092FF02983030C1B22846FFF78CFF0398DC
:100C90003030C1B22846FFF786FF38463030C1B247
:100CA0002846FFF780FF30463030C1B22846FFF7B4
:100CB0007AFF05B0F0BD000010270000F3B589B041
:100CC0000C460A212046FFF769FA0D460A21204604
:100CD000FFF764FA0A210190FFF760FA0E466421DB
:100CE0002046FFF75BFA0A210190FFF757FA0F46FB
:100CF0007D21C9002046FFF751FA0A210190FFF734
:100D00004DFA089139492046FFF748FA0A21019027
:100D1000FFF744FA079136492046FFF73FFA0A21C8
:100D20000190FFF73BFA069132492046FFF736FA69
:100D30000A210190FFF732FA05912F492046FFF76B
:100D40002DFA0A210190FFF729FA04912B49204638
:100D5000FFF724FA0A210190FFF720FA03912849AE
:100D60002046FFF71BFA0A210190FFF717FA0291BC
:100D700002983030C1B20998FFF715FF0398303060
:100D8000C1B20998FFF70FFF04983030C1B209983B
:100D9000FFF709FF05983030C1B20998FFF703FF4C
:100DA00006983030C1B20998FFF7FDFE0798303041
:100DB000C1B20998FFF7F7FE08983030C1B2099820
:100DC000FFF7F1FE38463030C1B20998FFF7EBFE6D
:100DD00030463030C1B20998FFF7E5FE2846303082
:100DE000C1B20998FFF7DFFE0BB0F0BD102700007D
:100DF000A086010040420F008096980000E1F505B2
:100E000000CA9A3BF8B507460D46012600BFB1005F
:100E1000284608410407240F092C02DD20463730FC
:100E200001E020463030C1B23846FFF7BCFE304604
:100E3000711ECEB20028EAD1F8BDF8B507460D46BE
:100E4000032600BFB100284608410407240F092CDF
:100E500002DD2046373001E020463030C1B238464E
:100E6000FFF7A1FE3046711ECEB20028EAD1F8BDD0
:100E7000F8B507460D46072600BFB1002846C84012
:100E80000407240F092C02DD2046373001E02046FC
:100E90003030C1B23846FFF786FE3046711ECEB202
:100EA0000028EAD1F8BD70B506460D462C4604E090
:100EB0002178641C3046FFF776FE20780028F7D1B1
:100EC00070BD000070B504460D4629462046FFF768
:100ED000EAFF02A12046FFF7E6FF70BD0A0D000001
:100EE00030B47446641E2578641CAB4204D3635D41
:100EF0005B00E31830BC18471D46F8E71CB502221A
:100F000001211F48FFF762FA022201211C48FFF766
:100F10003BFA022200211A48FFF758FA0222002168
:100F20001748FFF731FA6846FFF7FAFB4B204002FB
:100F3000009069461348FFF703FC13481349086003
:100F400013481449086014481449086014481549A6
:100F50000860154815490860154816490860164884
:100F6000164908601648174908601748174908606D
:100F70001748184908601848184908601CBD000047
:100F80000001003000410040A70E000028000020B2
:100F9000C50E00002C000020A70B00003000002030
:100FA000050E0000400000203B0E00004400002021
:100FB000710E000048000020B90B00003400002032
:100FC000150C000038000020BD0C00003C00002083
:100FD0008D0B00004C0000206D0B00005000002025
:100FE000FEB50446207A002804D0012804D0022847
:100FF00006D103E0102503E0082501E0012500BF2C
:1010000000BF2668676829463046FFF7C7F83946AB
:101010000090FFF7C3F8401E0190019880B201498B
:101020000862FEBD005C0040FFF712FDFFF766FDA1
:10103000FFF797F900F000F8FFF798F9FFF78AFC3F
:10104000FFF7E6FCFEB504460D460D4806682F0185
:1010500039463046FFF7A2F8401E02900298401C25
:101060007843301A0090009908023946FFF796F845
:101070000190029880B220620198C0B26062FEBD09
:101080001C0000202A2A2A2A2A2A2A2A2A2A2A2A2C
:101090002A2A2A2A2A2A2A2A2A2A2A2A2A2A2A2AB0
:1010A0002A2A2A2A2A2A2A2A2A2A2A2A2A2A2A2AA0
:1010B0002A2A2A2A0A0D4C50554152545F506F6C0F
:1010C0006C696E67204578616D706C65200A0D2033
:1010D000202D204D43553A20202020202020204143
:1010E00033314C313233200A0D20202D20436F72D2
:1010F000653A20202020202020436F727465782DCF
:101100004D302B200A0D20202D204D6F6E69746FFD
:1011100072696E673A205541525431202D20333880
:101120003430302D382D4E2D31200A0D5461726728
:101130006574205065726970686572616C3A204C04
:101140005055415254200A0D436F756E746572708C
:101150006172743A2020202020202041206578747C
:1011600065726E616C20646576696365206C696B7D
:10117000652061205043200A0D5478204461746139
:101180003A2020202020202020202020416E79207D
:10119000636861726163746572200A0D554152542F
:1011A000205458442050696E3A202020202020509E
:1011B0004233284C5054584429200A0D554152546A
:1011C000205258442050696E3A2020202020205080
:1011D0004234284C5052584429200A0D2A2A2A2ADF
:1011E0002A2A2A2A2A2A2A2A2A2A2A2A2A2A2A2A5F
:1011F0002A2A2A2A2A2A2A2A2A2A2A2A2A2A2A2A4F
:101200002A2A2A2A2A2A2A2A2A2A2A2A0A0D0A0DB8
:101210000000000034120000000000205400000014
:101220000401000088120000540000206403000044
:10123000200100000000000000000000000000008D
:101240000048E8010024F40000800000409C0000F9
:10125000000000000000000000000000000000008E
:10126000000000000000000000000000000000007E
:10127000000000000000000000000000000000006E
:08128000000000000000000066
:020000041FFFDC
:10F2000073A2C869FFFF0000FFFF0000DB96FFFF4D
:10F21000FFAAFFFFFFFFFFFFFFFFFFFFFFFFFFFF53
:10F22000FFFFFFFFFFFFFFFFFFFFFFFFFFFFFFFFEE
:10F23000FFFFFFFFFFFFFFFFFFFFFFFFFFFFFFFFDE
:04F24000FFFFFFFFCE
:020000041FFFDC
:10F40000E2E2E2E2FFFFFFFFFFFFFFFFFFFFFFFF80
:10F41000FFFFFFFFFFFFFFFFFFFFFFFFFFFFFFFFFC
:10F42000FFFFFFFFFFFFFFFFFFFFFFFFFFFFFFFFEC
:10F43000FFFFFFFFFFFFFFFFFFFFFFFFFFFFFFFFDC
:10F44000FFFFFFFFFFFFFFFFFFFFFFFFFFFFFFFFCC
:10F45000FFFFFFFFFFFFFFFFFFFFFFFFFFFFFFFFBC
:10F46000FFFFFFFFFFFFFFFFFFFFFFFFFFFFFFFFAC
:10F47000FFFFFFFFFFFFFFFFFFFFFFFFE2E2E2E210
:020000041FFFDC
:10F60000E3E3E3E3FFFFFFFFFFFFFFFFFFFFFFFF7A
:10F61000FFFFFFFFFFFFFFFFFFFFFFFFFFFFFFFFFA
:10F62000FFFFFFFFFFFFFFFFFFFFFFFFFFFFFFFFEA
:10F63000FFFFFFFFFFFFFFFFFFFFFFFFFFFFFFFFDA
:10F64000FFFFFFFFFFFFFFFFFFFFFFFFFFFFFFFFCA
:10F65000FFFFFFFFFFFFFFFFFFFFFFFFFFFFFFFFBA
:10F66000FFFFFFFFFFFFFFFFFFFFFFFFFFFFFFFFAA
:10F67000FFFFFFFFFFFFFFFFFFFFFFFFE3E3E3E30A
:04000005000000C136
:00000001FF
