:020000040000FA
:100000003007002099020000DD390000E9210000DE
:1000100000000000000000000000000000000000E0
:10002000000000000000000000000000113D000082
:100030000000000000000000653C0000133D0000CF
:10004000AB020000AB020000AB020000AB020000FC
:10005000AB020000AB020000AB020000AB020000EC
:10006000AB020000AB020000AB020000AB020000DC
:10007000AB020000AB020000AB020000AB020000CC
:10008000AB020000AB020000AB020000AB020000BC
:10009000AB020000AB020000AB020000AB020000AC
:1000A000AB020000AD2700000000000000000000CF
:1000B000AB020000AB020000AB020000AB0200008C
:1000C00000F002F800F0BDF80CA030C80838241881
:1000D0002D18A246671EAB4654465D46AC4201D180
:1000E00000F0AFF87E460F3E0FCCB64601263342F5
:1000F00000D0FB1AA246AB4633431847DC4A000047
:10010000FC4A0000103A02D378C878C1FAD85207E6
:1001100001D330C830C101D504680C6070470000BD
:100120000023002400250026103A01D378C1FBD813
:10013000520700D330C100D50B60704710B56E294F
:1001400002D100F081FA10BD702902D100F0BBFB92
:1001500010BD662902D104F097FB10BD652902D1BC
:1001600004F092FB10BD672902D104F08DFB10BD95
:10017000612902D104F090FB10BD03681B0A01D372
:1001800080231943692902D100F028FA10BD64299F
:1001900002D100F023FA10BD752902D100F01EFA39
:1001A00010BD6F2902D100F039FB10BD782902D1B2
:1001B00000F076FB10BDE92902D100F0D5FA10BDA0
:1001C000E42902D100F0D0FA10BDF52902D100F0E7
:1001D000CBFA10BDEF2902D100F02CFB10BDF8299D
:1001E00002D100F06BFB10BD0368DB0901D3802353
:1001F0001943632902D101F050F810BD732902D1CF
:1002000001F053F810BDE32902D101F05DF810BDF3
:10021000F32902D101F060F810BD002010BD1FB518
:1002200001F0BAF804000020002104F017FB401C84
:1002300060600020002104F0FBFAE0601FBD10B5F3
:1002400010BD01F081F81146FFF7E9FF04F066FAEE
:1002500001F016FC03B4FFF7F2FF03BC01F060FCF1
:1002600070B505460C46164602E00FCC0FC5103E91
:10027000102EFAD2082E02D303CC03C5083E042E5A
:1002800007D301CC01C5361F03E021782970641C17
:100290006D1C761EF9D270BD07488047074800479D
:1002A000FEE7FEE7FEE7FEE7FEE7FEE70448054956
:1002B000054A064B70470000613D0000C100000088
:1002C00030040020300700203005002030050020D9
:1002D0001CB50C46064B7B4469460090204600F056
:1002E000CCF904460020694600F0DAF920461CBD2E
:1002F000C7030000F8B5042A2CD3830712D00B786B
:10030000491C0370401C521E83070BD00B78491CFC
:100310000370401C521E830704D00B78491C0370E5
:10032000401C521E8B079B0F05D0C91ADF002023EB
:10033000DE1B08C90AE0FFF793FFF8BD1D4608C998
:10034000FD401C46B4402C4310C0121F042AF5D2B5
:10035000F308C91A521EF0D40B78491C0370401CD4
:10036000521EEAD40B78491C0370401C012AE4D4C5
:1003700009780170F8BD01E004C0091F0429FBD20F
:100380008B0701D50280801CC90700D0027070471E
:1003900000290BD0C30702D00270401C491E02295D
:1003A00004D3830702D50280801C891EE3E7002264
:1003B000EEE70022DFE7002203098B422CD3030A79
:1003C0008B4211D300239C464EE003460B433CD4A2
:1003D000002243088B4231D303098B421CD3030A0A
:1003E0008B4201D394463FE0C3098B4201D3CB013A
:1003F000C01A524183098B4201D38B01C01A52416A
:1004000043098B4201D34B01C01A524103098B426D
:1004100001D30B01C01A5241C3088B4201D3CB0058
:10042000C01A524183088B4201D38B00C01A52413B
:1004300043088B4201D34B00C01A5241411A00D2EB
:1004400001465241104670475DE0CA0F00D0494254
:10045000031000D34042534000229C4603098B42C4
:100460002DD3030A8B4212D3FC22890112BA030A4C
:100470008B420CD3890192118B4208D389019211CE
:100480008B4204D389013AD0921100E08909C30953
:100490008B4201D3CB01C01A524183098B4201D355
:1004A0008B01C01A524143098B4201D34B01C01A40
:1004B000524103098B4201D30B01C01A5241C308B8
:1004C0008B4201D3CB00C01A524183088B4201D327
:1004D0008B00C01A5241D9D243088B4201D34B0042
:1004E000C01A5241411A00D20146634652415B1084
:1004F000104601D34042002B00D549427047634665
:100500005B1000D3404201B50020C046C04602BD8A
:1005100070477047704770B5044685690068C1062A
:1005200001D5302600E02026C00707D070BD6268E4
:100530003046A1689047206A401C20626D1EF6D5A7
:1005400070BD70B5044685690078C00707D170BDDD
:100550006268A16820209047206A401C20626D1EBE
:10056000F6D570BD09684A0501D540B27047C90586
:10057000FCD500B2704709684A0501D5C0B2704782
:10058000C905FCD580B2704770B50C460546012AF6
:1005900005D02878800600D5EA69002302E001230F
:1005A00005E05B1C934202D2E05C0028F9D1A86907
:1005B000E618C01AA861286AC01828622846FFF702
:1005C000AAFF04E06A682078A968641C9047B442D6
:1005D000F8D32846FFF7B5FF70BD0000F7B500253A
:1005E00075291068009914A611D0FFF7BBFF0028E9
:1005F00002DA404211A608E0009909688A0701D58D
:100600000FA602E0490704D50EA6012501E0FFF779
:10061000B2FF009F0024243704E000F081FE303157
:100620003955641C0028F8D12B46324621460098E3
:1006300000F057FAFEBD0000000000002D00000091
:100640002B0000002000000011680268006A5305BA
:1006500001D5087009E0D30501D5088005E013062F
:1006600002D5C21705C100E00860012070470000F4
:1006700001694A1C02610878704700B58FB0029189
:100680000021059105490193794403911146049095
:10069000684600F025F90FB000BD0000E5FFFFFF40
:1006A0000A681070521C0A6070470000F7B50446D3
:1006B000154686B02B487844002703C83E46009074
:1006C000019111E007986A467100415A02A800F0B2
:1006D00007FE411C07D02178890603D5E269391845
:1006E00091420ED83F18761C2078800602D5E0692A
:1006F000B84206DDAE42E5DB07987100405A00289B
:10070000E0D1A069C01BA0612046FFF704FF154897
:1007100078445A3803C800900020019116E0410047
:100720006A460798415A02A800F0DAFD0590401C7D
:100730000AD0002505E0626802A8A168405D9047E4
:100740006D1C05988542F6D30498401CB042049075
:10075000E5DB206AC01920622046FFF7F2FE09B0EF
:10076000F0BD000022440000F7B5D21D0025D208DC
:1007700015A6D200F52905CA11D0002A05DA0021F4
:100780004042914111A60A4608E0009909688B078A
:1007900001D50FA602E0490701D50EA60125114695
:1007A000009F0024243704E000F05EF930323A550F
:1007B000641C02460A43F7D12B4632462146009874
:1007C00000F08FF9FEBD0000000000002D000000C9
:1007D0002B0000002000000070B5044600212434E6
:1007E00008E05507D2086D0F303565545D072A4380
:1007F000DB08491C15461D43F3D10468002310A2F1
:10080000250708D5A40601D4002904D0C469012312
:100810000CA2641EC46100F064F970BD10B50446FA
:1008200021461068FFF7A7FE002302462046FFF787
:10083000D3FF10BDD21DD108C9000CC9CCE7000000
:100840000000000030000000F8B50F4601880905DF
:1008500002D5224C7C4402E0204C7C440E340546F8
:100860000021243508E016071209360FA65D6E54E4
:100870001E0732431B09491C16461E43F3D122466C
:1008800004780023240705D5702F06D0002901D055
:100890000223113200F025F9F8BD01231032F9E7E7
:1008A00070B504460D4621461068FFF764FE00232C
:1008B000024629462046FFF7C7FF70BDD21DD30868
:1008C000DB000CCBC0E730B403682024126823435C
:1008D00003600823C36130BC0023B5E78C420000ED
:1008E000F3B50446002081B020622046E1688847C5
:1008F000002872D0252802D06268A168ABE0594F69
:1009000000267F442046E16888472028054608DB0A
:10091000312D06D2781920380078002801D00643FE
:10092000F0E7B00701D5042086430020E0610746C8
:10093000A0612A2D0AD0284603F036FE002827D0D1
:10094000B8000019303D0090856119E00298BA00A6
:10095000121902C8916102902046E1688847012F70
:10096000054617D1E06900281FDA202086431CE0E5
:1009700000980A21806948430099401930388861FD
:100980002046E1688847054603F00EFE0028EFD1B7
:10099000012F0AD02E2D08D12046E1688847054650
:1009A000202006437F1C022FC3DBA069002803DA46
:1009B0004042A06101200643F00701D01020864389
:1009C0006C2D0BD0682D09D04C2D3CD06A2D38D021
:1009D000742D38D07A2D36D016E040E0E1682F46ED
:1009E00020468847B842054609D16C2F29D00120FE
:1009F0008002E168064320468847054604E06C2FE4
:100A00001DD0FF2001300643002D28D02846413854
:100A1000192803D80120C00206432035204626604D
:100A20002946029A1646FFF789FB002810D00128B4
:100A30000BD0F61DF008C0000830029055E74020AA
:100A4000E1E78020D5E70020D3E7361D02964CE78A
:100A500062682846A1689047206A401C44E7206AE3
:100A6000FEBD0000064200000B4670B50246890735
:100A70008008084319469D08141AA941250908074A
:100A8000054308092C194841250A01060D43010AAE
:100A90002C194141200C0D0428430D0C00194D4127
:100AA000002140194D41C00869070843E908840F37
:100AB0008D002543840024184D4124196D41121BDB
:100AC000AB4107E00925ED432C1152196341002485
:100AD000401C61411C460A250026551BB441F1D239
:100AE00070BDFFB504460D4681B0243000902168EA
:100AF000880604D51022E0699143216000E00120BE
:100B0000A84201DD471B00E000270498A1697A197B
:100B10001018081AA0612078C00602D42046FFF7FA
:100B2000FAFC002608E003986268A168805D90479F
:100B3000206A401C761C206204988642F3DB2078F1
:100B4000C0060AD52046FFF7E6FC06E06268A16809
:100B500030209047206A401C206238467F1E0028C3
:100B6000F4DC07E000986268A168405D9047206A65
:100B7000401C206228466D1E0028F3DC2046FFF74B
:100B8000E0FC2078000602D5022005B0F0BD01206F
:100B9000FBE700007047FFB50C461E468FB003CA46
:100BA000089009914F007D0D00D16D1E002108466F
:100BB0000020C0460321099A89050840002A03DA6B
:100BC0008200801840080840800D01280A9002DD4C
:100BD0000020C0430A90089807430DD0F048F1491F
:100BE000281848430714189800281DD07542291E5C
:100BF0001DDD0A9842421BE01898012802D000200F
:100C0000302104E00020F24305E02154401CB042B2
:100C1000FBDB30460022189B002121540F998B608A
:100C20000A60486013B0F0BDBD1B6D1CDFE70A9A77
:100C3000002900DA69420BA800F0F6FB0BAB07CBEA
:100C400003AB07C30899099800F05AFC6B4607C329
:100C50000146D5480918002D00910BDDD2490398B3
:100C60000A9A49424018002303A90390684600F0FD
:100C7000B7FE08E003990A9A0023081803A9039015
:100C8000684600F057FE6B4607C30004000C03D013
:100C90000020C043410800E01046189A002A03D003
:100CA0000022009215461EE0751E05D4FFF7DCFEFB
:100CB000303262556D1EF9D501220843079602D0E5
:100CC00000227F1C04E02078302801D100227F1E02
:100CD000002A069787D01EE0112D07DAFFF7C4FE21
:100CE000303262556D1C02460A43F5D1084303D0E9
:100CF0000098002819D00EE00021681E05E0235C52
:100D0000625C63542254401E491C8142F7DBA81BDD
:100D1000401E07950690079A18990020A0540F9836
:100D2000079B069A81600CC07CE711260020189072
:100D300059E7D21DF0B50D460446D10893B0C9005D
:100D400003C90C900D9103F0DDFB02460D98C00F16
:100D500001D02D2007E02068810701D52B2002E07B
:100D60004007C00F4001032A0F9001D0072A05DB7E
:100D700003462946204600F013FB0EE1207880064A
:100D800001D5E76900E006272846652D04D06628CE
:100D900014D0672D69D12DE00020112F009001DBC8
:100DA000112300E07B1C0CAA03A910A8FFF7F3FE97
:100DB0001199002610987D1C0E9142E001203B46BF
:100DC0000CAAC0070B900120009003A910A8FFF700
:100DD000E2FE119D12981099002600280E9501D16F
:100DE000781C0D18781B02D446427D1C761EE81B29
:100DF00000903AE0012F00DA01270020112F009027
:100E000001DD112300E03B460CAA03A910A8FFF75F
:100E1000C2FE11993D46109800260E9121780907CF
:100E20000BD40E99A94200DA0D4603A9012D04DD69
:100E30004A19203AD27F302A06D0B84201DA011D81
:100E400004DA012100910FE06D1EEFE7002802DCBB
:100E500086192D1A03E0411CA94200DD0D46801BB6
:100E6000401C00900120C0070B902078000705D49B
:100E70000098A84202DB0020C04300906946002091
:100E8000C8720B98012102AF0337C907884225D0E9
:100E9000022010902B2011900B9800280BDA404272
:100EA0000B902D20119006E00B9800F039FA3031AC
:100EB0007F1E0B9039701099481E00291090F3DCAA
:100EC0000B980028F0D111987F1E387020880005FB
:100ED00001D5452000E065207F1E387001A8C01BA9
:100EE000C01D0B900F98002800D0012041190098D8
:100EF000C01709180B980818A169081A401EA061AC
:100F00002078C00602D42046FFF705FB0F98002882
:100F100005D06268A1689047206A401C2062207852
:100F2000C00625D52046FFF7F6FA21E0002E07DBA4
:100F30000E98B04204DD03A86268805DA16802E0FB
:100F40006268A16830209047206A761C401C2062AD
:100F50000098401E002800900AD100F01DFAC068D9
:100F600062680168405CA1689047206A401C20626A
:100F700028466D1E0028D9DC07E062683878A16831
:100F80007F1C9047206A401C20620B99481E002954
:100F90000B90F2DC2046FFF7D4FA032042E6000073
:100FA00001FCFFFF104D0000E1DFFFFFD21DF0B597
:100FB00004460D46D0088DB0C0004668076831462B
:100FC000384603F09FFA0246F00F01D02D2307E0C8
:100FD0002068810701D52B2302E04007C00F4301A1
:100FE0006846002B037001D0012000E00020032A96
:100FF0000A9001D0072A04DB2946204600F0D0F9E8
:101000002DE12078800601D40D2500E0E56970000F
:10101000400D0D2D01904BDA300D00210B9008464C
:101020000020C046032189050840002E05DA820011
:101030008018C20F1018401008408015012801DDEB
:101040000020C043A9000023182906D39C460A4665
:101050000123183A1B07D34003E001221205CA40BE
:1010600094460C31202902D33A46203900E032461A
:101070008A40002802DD002A06D119E0002817D195
:101080000121C9078A4213D3194663467F185E417E
:10109000002806D10120C007824202D108468743BA
:1010A0009E430B98310D814202D00198401C019063
:1010B0002088000502D57149794402E06F497944DE
:1010C00019396B460A9830221A540A980A7C401C37
:1010D0001A54401C0A900198002801DC302000E0DE
:1010E00031201872019A0120002A02D0644BD218D4
:1010F00004E072003A4302D0614A521C0192002D72
:1011000002DC2278120703D56A462E205072022094
:101110000022864694460CE032033601120F6D1E03
:101120008B5C02AA13546246521C401C9446052A4A
:1011300001DA002DF0DC002202AE08E03B0F3F0197
:10114000CB5C521C6D1E3354401C082A01DA002D62
:10115000F4DC23689A0601D511E0401E704504DDD9
:101160003218203AD27F302AF7D0002807DD321813
:10117000203AD27F2E2A02D11A0700D4401E002D19
:1011800003DD3E223254401C6D1E497C31540199CE
:10119000401C002906DA2D21471C31540198404299
:1011A000019003E02B21471C315401987D21C90097
:1011B000884206DBFFF709F93030F0557F1C0191BA
:1011C00001E0642808DB01986421FFF7FEF8303065
:1011D000F0557F1C019101E00A2806DB01980A21E5
:1011E000FFF7F3F83030F0557F1C01980A21FFF724
:1011F000ECF83031F1550A98A1697F1C7A19101862
:10120000081AA0612078C00602D42046FFF783F9AF
:10121000216A6E460A980818206204E062683078F5
:10122000A168761C90470A98401E0A90401CF5D190
:101230002078C00602D52046FFF76DF902AE09E01E
:101240003078761C3E280DD06268A1689047206AED
:10125000401C20627F1EF3D22046FFF772F90DB0CA
:101260000320F0BD206A4019206203E06268A16893
:10127000302090476D1EEDD3F8E70000743A00006F
:1012800001FCFFFF10B54369002B02D0C046C046E9
:1012900001E0FFF779F9012010BD127801462431F1
:1012A0000A7000224A700122ECE711680022D24342
:1012B000E8E710B54369002B02D0C046C04601E004
:1012C000FFF7F4F9012010BD128801462431828411
:1012D0000022C2840122ECE711680022D243E8E731
:1012E00070B516460C46054600F04EF80368FF2020
:1012F0000230C05C012807D0FF2C0ED8185D0028F2
:101300000BD001202C7070BDFF33324621460833CC
:101310001868C3182846984770BD0020C04370BDA8
:1013200001468008081A02091018020A1018020C57
:101330001018C008820012185200891A01E0401CDF
:101340000A390A29FBD27047754600F0A1FBAE4668
:10135000050069465346C008C000854618B020B550
:10136000FEF7A4FF60BC00274908B6460026C0C5AA
:10137000C0C5C0C5C0C5C0C5C0C5C0C5C0C5403D4D
:1013800049008D467047000010B500F005F8001DBB
:1013900010BD00BFC934000000487047F0030020B2
:1013A000F8B51F46044601230068DB020326014608
:1013B0001840072A05DB002801D017A506E017A56D
:1013C00004E0002801D016A500E016A510208143F6
:1013D0002160A069C01E002FA06101D0401EA06145
:1013E0002046FFF798F8002F09D038466268A168B8
:1013F0009047206A401C2062C01C206206E0206AE0
:10140000FAE762682878A1686D1C9047761EF8D2CA
:101410002046FFF796F8F8BD4E414E006E616E0013
:10142000494E4600696E6600F7B516468AB03348E5
:1014300078446C4603467C33C06F5A689B680DC481
:101440002E487844763003AC0DC80DC43720C00157
:10145000081837211B30FEF7B8FF05460C46803DC3
:101460001B3C02D56442012000E0002000270990C7
:1014700010E0E0070CD00C20204978437944324634
:101480004C3941186846012300F054FA6B4607C3F3
:1014900064107F1C002CECD1184F7F442E3F16E0C7
:1014A000E80712D02001C0190EC8069108930792D0
:1014B0000068F04201D1981908903246012306A92C
:1014C00003A800F037FA03AB07C36D10641C002DAE
:1014D000E6D10998002806D032466946012303A8C0
:1014E00000F07EFA05E001233246694603A800F0C9
:1014F00021FA0A9B07C30DB0F0BD000010370000B1
:10150000034640000A4610B5400D0BD00121C90723
:101510000F24A40200191C0364082143540D214325
:10152000D20207E000210120F2E7D40F4900214355
:101530005200401E0029F8DADB0FDB07184310BD0C
:10154000FFB50D46144685B04868516802F0B4FFF7
:1015500000910190A868A16802F0AEFF029103908B
:10156000A868616802F0A8FF029A121882420292EB
:1015700001D2012000E00020019A0B18D2180028A7
:10158000019202D08A4202D903E08A4201D20120AC
:1015900000E000200099081800906868A16802F037
:1015A0008BFF029A12188242029201D2012000E0BF
:1015B0000020019A0B18D2180028019202D08A420A
:1015C00002D903E08A4201D2012000E00020009904
:1015D0000818009028682168400049004008490820
:1015E0004018FA49471814E001994000C90F084310
:1015F0000090019802994000C90F08430190029899
:1016000003994000C90F08430290039840007F1ED1
:10161000039000980028E7DA0898002801D0EC4EE3
:1016200000E00026B74201DA012000E00020002897
:1016300004902AD0F71BF806C00E15D0029B20217B
:10164000091A039A8B401A430392029A019BC240E3
:101650008B401A430292019A009BC2408B40009932
:101660001A430192C14000917B110DD06F460320B7
:10167000C11A03D500218200B95003E08A0081001D
:10168000BA587A50401EF3D537460398029900287D
:1016900000D00120014308980291002808460CD090
:1016A000002800D001200199019A49050843012131
:1016B000D20AC902D202019200E001210E9B01224E
:1016C000D207012B02D0002B03D013E0002807D152
:1016D00020E0904204D890420CD1019B0B4209D0EB
:1016E000019B5918019105D10099491C009101D124
:1016F0007F1C009200280DD0102108460020C04613
:101700000498002806D00F98002803D00821084626
:101710000020C04628682168019B009A4840C10FFC
:101720000598C90739430EC009B0F0BDFFB587B0B1
:10173000099A08980899536892684068896896469B
:101740000022039317469446089A12685300099A98
:101750005B081268520052089A1A9E4BD4180A9AD3
:10176000002A01D0352200E0402206920022012307
:1017700015460492DB07059324E0002D05D175463C
:101780000346039E4D1BB34109D375466646039B32
:10179000491B049D9841059B7519AC465F41634602
:1017A0003B4308D0059B049EDD0776082E435B086B
:1017B0000496059301E0521E641EC50FED074918FB
:1017C0004041521C069B9A42D7DB002D04D175463E
:1017D000039A6B1A824101D203200CE0039A0B4654
:1017E0006B404240134303D0014303D0012002E089
:1017F000022000E000206146019100210097029143
:101800000A99002905D0614640020143704B0191BD
:1018100002E08007002302909C4201DA012000E0F0
:10182000002007003AD01A1BD006C00E15D0029D2A
:101830002021019C091AC5408C402543029C8C4004
:1018400000D001242543019C0295009DC4408D4099
:1018500000992C430194C140009154111DD06D4654
:101860000221002202290CD10320001B07E00028DE
:1018700004DB8600AE59002E00D00122401C032854
:10188000F5DB081B02D588002A5004E080002858A8
:1018900010438A00A850491EE3D51C460A98002828
:1018A00002980CD0002800D001200199019A490526
:1018B00008430121D20AC902D202019200E00121AB
:1018C000109B0122D207012B02D0002B03D013E082
:1018D000002807D11FE0904204D890420CD1019B10
:1018E0000B4209D0019B5918019105D10099491C5F
:1018F000009101D1641C009200280CD010210846F0
:101900000020C046002F06D01198002803D00821DF
:1019100008460020C04608980999019A009B006873
:1019200009684840C10F0798C907214382600AC06F
:101930000BB0F0BD00B585B0019300920A46014698
:10194000002302A8FFF7FCFD02A807C805B000BDF0
:10195000FFB50A461F4685B0079901930123009100
:10196000014602A8FFF7ECFD02990398049ECA0FF6
:101970004900D20700920F22490892028C1A0021D6
:10198000002800DB0C46450013486D08844214D340
:10199000079A002A04DA441E0026104DF64302E09E
:1019A00004460D460E46102108460020C046002F72
:1019B00003D0042108460020C0462005E90A084358
:1019C000009908436905F20A1143ADE602C0FFFF22
:1019D000013C0000FF3F0000FF070000FFFFFF7F0A
:1019E00000B585B0019300920A460146002302A883
:1019F000FFF79CFE02A807C8A8E7FFB50A461F46E6
:101A000085B00799019301230091014602A8FFF7D1
:101A10008DFE02990398049ECA0F4900D2070092D6
:101A20000F22490892028C1A0021002800DB0C4684
:101A3000450011486D08844214D3079A002A04DA3D
:101A4000441E00260D4DF64302E004460D460E46A8
:101A5000102108460020C046002F03D0042108466C
:101A60000020C0462005E90A08430099084369059B
:101A7000F20A114358E60000FF070000FFFFFF7F56
:101A800010B50446C046C0462046FEF7E3FB10BD35
:101A900000487047D0030020024670B50A43920701
:101AA0002AD11E4DEE0104C808C9541B944334408A
:101AB00017D0D0B2D9B2401A2106014310D190B24A
:101AC00099B2401A210401430AD110021902000AF6
:101AD000090A401A2102014302D1100E190E401AC0
:101AE00070BD9A42DFD010BA19BA884201D90120DC
:101AF00070BD0020C04370BD02780B78401C491CAB
:101B0000002A09D09A4207D102780B78401C491C60
:101B1000002A01D09A42EFD0D01A70BD0101010114
:101B200001491820ABBEFEE7260002007047000006
:101B300010B586B002F05CFD14220EA16846FEF7D7
:101B40008FFB0020059002E00598401C05900E498F
:101B500005988842F8D3002406E06846015D0B48EA
:101B600002F00DFB601CC4B26846005D0028F4D191
:101B700006B010BD554152543120444542554720CE
:101B8000544553540A0D0000A08601000041004056
:101B900010B503490348044A1268904710BD00007D
:101BA000A8480000004100403800002070B50346FE
:101BB0000C46082C0CDAA506280E99680F258540DE
:101BC0000E46AE43314615468540294399600EE0E6
:101BD0002546083DECB2A506280ED9680F2585409C
:101BE0000E46AE433146154685402943D96070BD47
:101BF000F0B503461446032C00D101224E06350EE3
:101C000018680326AE400746B74338461646AE402E
:101C100030431860012C01D0032C0BD158680126E9
:101C20008E400746B7433846032C02D101268E402A
:101C300030435860F0BD0000024909680143014A81
:101C4000116070470014004000B502461848416911
:101C5000130002F049FC0906090C0F1215191D2189
:101C60002500012001431DE0042001431AE010205B
:101C7000014317E04020014314E08020014311E0BC
:101C80000120000301430DE001204003014309E06E
:101C900001208003014305E00120C003014301E06E
:101CA000012000BD00BF024841610020F9E70000AB
:101CB000005C004010B502460C46130002F014FC14
:101CC000050406080A0C0E00012109E0042107E0C2
:101CD000102105E0402103E0802101E0012010BD3A
:101CE00000BF012C05D1064800690843044B186168
:101CF00004E0034800698843014B18610020EEE7C7
:101D0000005C00400146002901D1012070470748CE
:101D1000006808604B2040024860002008720320E1
:101D2000487200208872C87200BFEFE708000020E8
:101D300001460548006840084000CA07D20F10431A
:101D4000014A106000207047005C00400148406973
:101D5000C0B27047005C004010B50446002C01D1B1
:101D6000012010BD0121C80300F0F4F80120C003D8
:101D700000F000F9204602F0ADFC207A4001617AC3
:101D800049020843A17A09030843E17AC9010843DB
:101D90000C300449086000F041F800F03FF80020E2
:101DA000DFE70000005C0040F0B504460D46164633
:101DB000224629460023012E19D115E0154F03E0D4
:101DC000002F00D106E07F1E13484069C007C00FF6
:101DD0000028F5D000BF002F00D107E000F01EF86A
:101DE0001070521C491E5B1C0029E7D110E00CE06A
:101DF00009484069C007C00F002800D107E000F083
:101E00000DF81070521C5B1C491E0029F0D100BF58
:101E10001846F0BDFFFF0000005C004001488069EB
:101E2000C0B27047005C0040F7B5009D019C0026E1
:101E3000029801281CD118E028786D1C00F030F8B9
:101E4000154F03E0002F00D106E07F1E13484069C4
:101E5000042108400028F5D000BF002F00D106E083
:101E60000120FFF7F1FE641E761C002CE4D110E087
:101E70000CE00A48406904210840002800D107E02E
:101E800028786D1C00F00CF8641E761C002CF0D134
:101E900000BF3046FEBD0000FFFF0000005C0040B8
:101EA00001460248C161002070470000005C00400C
:101EB0000C4A52681207D20F002A05D1094A52680B
:101EC000094B1A43074B5A600C2202430A43054B45
:101ED0005A611A46526980239A438032014B5A61F3
:101EE0007047000000180040080007A50146054A99
:101EF000526890B2044A104302468A431046014A8F
:101F00005060704700180040000007A5054A52685D
:101F1000054B1A40054BD2180A430243014B5A6045
:101F20007047000000180040FFCF0000000007A528
:101F3000014A10625162704700180040044A12685A
:101F40008243034B1A601A4612680A431A607047AC
:101F500040180040002905D0054A526A0243044B4C
:101F60005A6204E0024A526A8243014B5A62704745
:101F700000180040054A5062002101E000BF491CE2
:101F80000A29FBD30022014B5A62704740180040D7
:101F900002490143024A11607047000000000A57DD
:101FA00000180040014A9060D1607047001800405E
:101FB0000146002901D1012070474B2040020860F2
:101FC0000320087100204871887100BFF4E70146C2
:101FD00048694006400E704770B504460E46002C16
:101FE00001D1012070BD3948844203D10121042070
:101FF000FFF7B0FF3648844203D101210820FFF7E4
:10200000A9FF01E02068C5B26069C007C00F0028C1
:10201000F8D100BF6069202108400028FAD00020D4
:102020006060E06020616069C5B2A068C5B22948FF
:102030000068294908602046316802F0D9FBE06851
:102040004021084005463079002806D0012806D0F6
:10205000022807D0032808D108E000BF09E00120CA
:10206000054306E00220054303E000BF03200543CB
:1020700000BF00BF7079002818D008200543707990
:10208000012806D0022806D0032807D004280BD147
:1020900007E000BF09E01020054306E020200543CB
:1020A00003E03020054300E000BF00BFB079002806
:1020B00005D0012802D10420054301E000BF00BF84
:1020C00000BF6806400EE06000208BE70040004043
:1020D00000410040080000202C000020FFB504460D
:1020E0001646019B324600250398012819D115E0B8
:1020F000164F03E0002F00D105E07F1E6069C00786
:10210000C00F0028F6D000BF002F00D108E0204605
:1021100000F01EF818705B1C521E6D1C002AE7D1DF
:1021200010E00CE06069C007C00F002800D108E093
:10213000204600F00DF818705B1C521E6D1C002A22
:10214000F0D100BF284604B0F0BD0000FFFF000042
:1021500001460868C0B27047FFB50446019D029B66
:1021600000260398012820D115E01A4F03E0002F24
:1021700000D105E07F1E6069202108400028F6D0CC
:1021800000BF002F00D108E029786D1C204600F028
:1021900023F85B1E761C002BE7D100BF00BF6069EF
:1021A0004006C00F0028FAD010E00CE06069202142
:1021B0000840002800D108E029786D1C204600F076
:1021C0000BF85B1E761C002BF0D100BF304604B02C
:1021D000F0BD0000FFFF00000246002A01D10120EF
:1021E000704711600020FBE700BFFEE738B521E033
:1021F000002201216846FFF7D7FD0446002C18D0C5
:102200000E48007BC106C90E0C48007A401CC0066F
:10221000C00E81420ED0684601780848826830308E
:1022200081543038007A401CC006C00E03498860D3
:1022300000E000E0DCE700BF38BD000064000020E3
:1022400010B500210120FFF735FD12E01B494A6857
:102250001031501800220121FFF7E6FD002807D0B9
:1022600016480079401CC006C00E1449486000E0C2
:1022700009E012480078C006C00E10490979C90665
:10228000C90E8842E2D100BF0C480078C006C00EDB
:102290000A490979C906C90E884207D100210120DF
:1022A000FFF708FD00200649087006E001200449F8
:1022B000087001210846FFF7FDFC10BD64000020F6
:1022C0001C00002000B585B00020A4490870A44976
:1022D0008860C86008604860A2A1AE48AE4A126833
:1022E0009047AEA1AB48AC4A12689047B2A1A9484A
:1022F000A94A1268904702220321BA48FFF778FCE6
:1023000002220321B748FFF751FCB7A1A148A24A16
:102310001268904702220421B248FFF769FC0222AA
:102320000421B048FFF742FCB7A19A489A4A1268C4
:102330009047BDA19748984A12689047A9480068FD
:102340008004010E9348BE4A1268904799A19148B3
:10235000914A12689047BBA18E488F4A12689047F5
:10236000A04880680003010E8A48B54A1268904769
:1023700090A18848884A12689047B8A18548864A43
:10238000126890478CA18348834A12689047BFA186
:102390008048814A1268904787A17E487E4A126829
:1023A000904702A8FFF7AEFC4B2000010390BDA1AF
:1023B0007848794A12689047002103208002FFF78D
:1023C000BDFDBE4800680290BDA17248724A126805
:1023D0009047BA4801686F48BD4A12689047BDA14E
:1023E0006C486D4A1268904702A8FFF7B5FCBBA184
:1023F0006848694A1268904701210020FFF75AFC9B
:1024000001210846FFF756FCBAA16248624A1268E9
:1024100090470120FFF78CFCBEA15E485E4A12681F
:102420009047C1A15B485C4A12689047C5A15948D2
:10243000594A12689047C6480068C1B25548804A58
:10244000126890475BA15348534A12689047C1A154
:102450005048514A12689047BD48006A0004010E76
:102460004C48774A12689047B948006AC1B2494857
:10247000734A126890474FA14648474A12689047EE
:1024800076A14448444A126890470321192002F07B
:102490004FF81920002809DB00BF00BFC206D20E8A
:1024A00001219140AE4A116000BF00BF00BF012072
:1024B0004006FFF7C1FB0020019002E00198401C9C
:1024C0000190A84901988842F8D3A7A13148324A1F
:1024D00012689047AA2001900122114601A8FFF737
:1024E000A3FC0020009002E00098401C00909D4951
:1024F00000988842F8D3A5A12648274A1268904739
:10250000FF2001900122114601A8FFF78DFC002059
:10251000009002E00098401C0090A3490098884277
:10252000F8D30020FFF704FC0020009002E00098A0
:10253000401C00907D21C90000988842F7D30120FB
:10254000FFF7F6FB0020009002E00098401C00908E
:10255000954900988842F8D305B000BD1C000020C2
:10256000640000200A0D3D3D3D3D3D3D3D3D3D3D6E
:102570003D3D3D3D3D3D3D3D3D3D3D3D3D3D3D3D8B
:102580003D3D3D3D3D3D3D3D3D3D3D3D3D3D0A0DDE
:102590000000000000410040380000204C50554130
:1025A00052542050696E20436F6E66696775726180
:1025B00074696F6E0A0D00003D3D3D3D3D3D3D3D62
:1025C0003D3D3D3D3D3D3D3D3D3D3D3D3D3D3D3D3B
:1025D0003D3D3D3D3D3D3D3D3D3D3D3D3D3D3D3D2B
:1025E0000A0D00000001003050423320636F6E6618
:1025F000696775726564206173204C50545844209B
:1026000028414632290A0D0050423420636F6E661D
:10261000696775726564206173204C50525844207C
:1026200028414632290A0D0050422D3E4D4F44208C
:10263000285042332F504234293A2030780000008D
:102640005000002050422D3E414653523120285028
:1026500042332F504234293A203078003D3D3D3DF1
:102660003D3D3D3D3D3D3D3D3D3D3D3D3D3D3D3D9A
:102670003D3D3D3D3D3D3D3D3D3D3D3D3D3D3D3D8A
:102680003D3D3D3D0A0D0A0D000000004C505541F6
:10269000525420436F6E66696775726174696F6E1C
:1026A0000A0D000042617564726174653A2031322E
:1026B0003030206270730A0D000000000800002016
:1026C0004261736520436C6F636B3A200000000029
:1026D0004C00002020487A0A0D0000004C50554163
:1026E000525420496E697469616C697A65640A0D97
:1026F00000000000496E7465727275707473204535
:102700006E61626C6564202852582F5458290A0D56
:10271000000000004C505541525420456E61626CDF
:1027200065640A0D000000000A0D4C5055415254DA
:102730002052656769737465722053746174757390
:102740003A0A0D0020204352313A20307800000030
:10275000005C004020204244523A203078000000C3
:1027600000E100E0A08601000A0D4C505541525492
:1027700020546573743A2053656E64696E67203027
:102780007841412E2E2E0A0D000000004C5055417C
:10279000525420546573743A203078414120736557
:1027A0006E740A0D000000001027000010B500F044
:1027B00001F810BD10B5FFF7C9FA0446E007C00FD5
:1027C000002804D0FFF712FD0020FFF73DFA042097
:1027D0002040042804D1FFF733FD0120FFF734FA2D
:1027E00010BD00001CB533A0006801905B250126D8
:1027F00000F0A0F9304801F06FF8304801F066F8B9
:102800002FA13C483C4A126890473CA139483A4ABB
:102810001268904742A13748374A1268904748E00B
:1028200001F060F83348FFF7D2FBC007C00F002863
:1028300014D03048FFF78CFC0446742C01D0542C83
:102840000BD144A12B482C4A1268904701F09AFA08
:1028500049A12848284A1268904700BF524800689A
:10286000401C51490860084600685049884216D308
:1028700000204D4908604EA11E481F4A126890472B
:10288000012301AA2946304600F072FF0446002CBD
:1028900004D055A11748184A1268904700BF00207D
:1028A000009003E000BF0098401C0090009864284E
:1028B000F8D3B5E75C000000C53A0000E13900003C
:1028C0000A0D53656F756C204469676974616C20EB
:1028D0005761746572204D657465722050726F7413
:1028E0006F636F6C20496E697469616C697A6564A5
:1028F0000A0D00000041004038000020426175646C
:10290000726174653A2031323030206270732C204D
:10291000466F726D61743A20382D4E2D310A0D00CC
:102920004175746F2056657273696F6E20446574CB
:10293000656374696F6E3A2056312E312C20563102
:102940002E322C2056312E332C2056312E340A0DA7
:102950000A0D00000A0D52756E6E696E6720507286
:102960006F746F636F6C2050617273657220546571
:1029700073742E2E2E0A0D005465737420636F6DD0
:10298000706C6574652E20507265737320277427F0
:1029900020616761696E20746F2072652D72756E9B
:1029A0002E0A0D0A0D0000002000002020A10700C3
:1029B0000A0D53656E64696E6720636F6D6D616E9D
:1029C0006420746F206D6574657220284672616D95
:1029D000653A2031302D35422D30312D35432D31A2
:1029E00036292E2E2E0A0D004661696C656420740E
:1029F0006F2073656E6420636F6D6D616E640A0D88
:102A000000000000F0B502460023002114E003207E
:102A1000401A145C25112607360F092D01DC092EFA
:102A200001DD0020F0BD1846642778430A276F4374
:102A3000BF19C319481CC1B20429E8DB1846F1E7E5
:102A400010B502460B460020002103E0545C6040B4
:102A50004C1CA1B29942F9DB10BDF8B502460D46F7
:102A60000C2D01DA0020F8BD1078682806D1D07846
:102A7000682803D1681E105C162801D00020F2E7F8
:102A800051789078884201D00020ECE70B2901DBD7
:102A9000FC2901DD0020E6E7C81EC3B2D41D0C2BC3
:102AA00001DA0020DFE70C2B02D167790B20DAE78F
:102AB0000C26301D83420DDBA75D122F01D10C20A7
:102AC000D1E7132F01D10D20CDE7142F01D10E2016
:102AD000C9E700BFE0790090C0270098384000287F
:102AE00001D00E20BFE70C20BDE701461F2901DD04
:102AF000002070472520401AC0B2FAE730B587B0F1
:102B000004462006050F1C2206496846FDF7A8FB6F
:102B10001A2D02D3002007B030BD68006946085A5C
:102B2000F9E70000C04A0000014800687047000053
:102B30002800002010B5872189000448FDF739FCE2
:102B4000002002490870487210BD0000B401002046
:102B5000F8B504460D4620780F2801D00020F8BDB6
:102B6000217968460170E1784170A17881706178BF
:102B7000C170FFF747FFA860A6793046FFF7BEFF98
:102B80006882E7793807000F2875207A6875617ABE
:102B9000A975A17AE975E17A297628461530FFF7FB
:102BA00031FFE8610120DAE7F7B588B00546144641
:102BB00034212046FDF7FDFBE562099820860020C0
:102BC000607028460999FFF748FF07900798207022
:102BD0000798002801D10BB0F0BD6F780020069057
:102BE0000420059009E00598295C06980818C0B2F1
:102BF00006900598401C80B20590381D05998842C2
:102C0000F1DC272106980855381D295C262001553E
:102C1000015D0698814201D1012100E000212820B8
:102C200001552879A0706879E070A8792071EE1DAF
:102C3000F81EC0B2049021463046FFF789FF0028F5
:102C400000D1C8E77079039007980B2806D00C28AC
:102C500009D00D280CD00E2817D10EE0214603987C
:102C600000F043F813E02146039800F055F80EE019
:102C70002146039800F063F809E0F07902902246BB
:102C80000299039800F06DF801E00020A3E700BF6F
:102C900004980C280CDD30460C30029004980C3857
:102CA000C0B2019022460199029800F005F800BFD9
:102CB0000120607000BF8EE710B50346042904DAD6
:102CC000002420208454002010BD0124202084549E
:102CD0001C78212084545C78222084549878000247
:102CE000DC78204390840120EEE7024680201040EB
:102CF000C00908734020104083094B732020104006
:102D000043098B73042010408308CB7302201040CA
:102D100043080B7401207047024680201040C00910
:102D200008734020104083094B7320201040430952
:102D30008B73042010408308CB7301207047024638
:102D400080201040C00908734020104083094B7355
:102D50002020104043098B73D306DB0ECB73012078
:102D6000704710B5034680201840C00910734020FA
:102D70001840840954732020184044099473DC06D9
:102D8000E40ED47380200840C40914744020084025
:102D900084095474012010BDF8B50446002C05D1F7
:102DA000E7A1ED48ED4A12689047F8BDE9A1EA486D
:102DB000EA4A12689047EAA1E748E84A1268904751
:102DC000F2A1E548E54A12689047E5A1E248E34AE6
:102DD000126890476078002805D0F7A1DE48DF4AE6
:102DE0001268904705E0F9A1DB48DC4A1268904779
:102DF000DBE7FBA1D848D94A1268904720780B2816
:102E000006D00C280AD00D280ED00E2818D111E0BB
:102E1000F6A1D148D14A1268904717E0F8A1CE48F0
:102E2000CE4A1268904711E0FAA1CB48CB4A12680B
:102E300090470BE0FCA1C848C84A1268904705E0DB
:102E4000FEA1C548C54A1268904700BF00BFFEA159
:102E5000C148C24A126890472820005D002810D05F
:102E6000FCA1BD48BD4A126890472620015DBA48C2
:102E7000FA4A12689047FAA1B748B84A12689047D0
:102E80001AE0F8A1B448B54A126890472620015DBF
:102E9000B148F24A12689047F6A1AF48AF4A1268AB
:102EA00090472720015DAC48EC4A12689047ECA19E
:102EB000A948AA4A12689047F1A1A748A74A1268F0
:102EC0009047A178A448E54A12689047A1A1A2487A
:102ED000A24A12689047EEA19F48A04A1268904704
:102EE000E1789D48DD4A126890479AA19A489B4A2A
:102EF00012689047EAA19848984A12689047217949
:102F00009548D64A1268904792A19348934A12680E
:102F10009047E7A19048914A12689047E7A0A168BE
:102F200001F04AFBE7A18C488C4A12689047618AFD
:102F30008948E74A12689047E6A18748874A12689D
:102F40009047E6A18448854A12689047217E8248CE
:102F5000C24A12689047E5A17F48804A12689047AC
:102F6000E17D7D48BD4A12689047E0A17A487B4ADE
:102F700012689047A17D7848B84A12689047DBA153
:102F80007548764A12689047617D7348B34A126863
:102F9000904770A17048714A12689047D4A16E485A
:102FA0006E4A12689047D7A0E16901F005FBD6A1EF
:102FB00069486A4A12689047217D6748C44A126886
:102FC0009047A7A16448654A12689047D3A1624818
:102FD000624A12689047207D02280FD16421E0697F
:102FE000FDF7E9F905466421E069FDF7E4F90E46CD
:102FF00032462946CDA001F0DFFA18E0207D0328F3
:1030000011D17D21C900E069FDF7D5F905467D2183
:10301000C900E069FDF7CFF90E4632462946C7A040
:1030200001F0CAFA03E0C9A0E16901F0C5FA4CA1B8
:1030300049484A4A12689047C7A14748474A126818
:103040009047C8A14448454A12689047207B002811
:1030500001D0C9A000E0CAA001463F483F4A12681B
:103060009047C9A13C483D4A12689047607B0028C0
:1030700001D0C1A000E0C2A001463748374A12681B
:103080009047C6A13448354A12689047A07B002873
:1030900001D0B9A000E0BAA001462F482F4A12681B
:1030A000904720780B2806D00C2825D00D2834D046
:1030B0000E2843D1B6E1BEA12748284A126890479E
:1030C000E07B002801D0ACA000E0ADA00146224882
:1030D000224A12689047BBA11F48204A12689047B5
:1030E000207C002801D0BCA000E0A5A001461A4821
:1030F0001A4A12689047D3E1ADA11748174A1268DF
:103100009047E07B002801D0B7A000E09CA00146DA
:103110001148124A12689047C2E1B8A10E480F4AFE
:1031200012689047E07BFFF7E0FC05460A2128463D
:10313000FDF74BF90E460A21284669E1AFE1000090
:103140005B4552524F525D204E554C4C20706F697A
:103150006E7465720D0A00000041004038000020C6
:103160003D3D3D3D3D3D3D3D3D3D3D3D3D3D3D3D8F
:103170003D3D3D3D3D3D3D3D3D3D3D3D3D3D3D3D7F
:103180003D3D3D3D3D3D3D3D0D0A000020202020C0
:1031900020202053656F756C205761746572204D37
:1031A000657465722050726F746F636F6C2020209D
:1031B0002020200D0A0000005B50415253455D2045
:1031C000537563636573730D0A0000005B504152D1
:1031D00053455D204661696C65640D0A000000007E
:1031E0005B56455253494F4E5D20000056312E31FB
:1031F0002028323031332E3036290D0A00000000ED
:1032000056312E322028323032312E3035290D0AF7
:103210000000000056312E332028323032332E3059
:1032200031290D0A0000000056312E34202832309A
:1032300032342E3037290D0A00000000556E6B6EB7
:103240006F776E0D0A0000005B434845434B5355B2
:103250004D5D20004F4B20283078000050000020AA
:10326000290D0A004641494C2028526563763A30C0
:10327000780000002043616C633A30780000000061
:103280005B43204649454C445D20307800000000F7
:103290005B41204649454C445D20307800000000E9
:1032A0005B4349204649454C445D2030780000008E
:1032B0005B4D455445522049445D20002530386C13
:1032C000750D0A005B4449414D455445525D20004F
:1032D0004C000020206D6D0D0A0000005B5245413E
:1032E00044494E47204243445D2000002000000036
:1032F0005B52454144494E472056414C55455D205F
:1033000000000000256C75002028446563696D612C
:103310006C20506F696E743A200000005B4143548A
:1033200055414C2056414C55455D2000256C752E6D
:103330002530326C75206D330D0A0000256C752E1A
:103340002530336C75206D330D0A0000256C752017
:103350006D330D0A000000005B5354415455535D1A
:103360000D0A000020205133204578636565643ADA
:1033700020202020000000005945530D0A000000C5
:103380004E4F0D0A000000002020526576657273D2
:103390006520466C6F773A20000000002020496EBF
:1033A000646F6F72204C65616B3A20200000000052
:1033B000202042617474204C6F773A202020202016
:1033C000000000002020467265657A652057617212
:1033D0006E3A20200000000059455320282D32432A
:1033E00020336872290D0A00594553202833206D77
:1033F0006F6E746873290D0A00000000202042617E
:10340000747420566F6C746167653A200000000088
:10341000FCF7DBFF0746E37B324639466BA001F041
:10342000CBF83DE06E496F486F4A12689047E07BE9
:10343000FFF75BFB05460A212846FCF7C6FF0E4650
:103440000A212846FCF7C1FF0746E37B324639468E
:103450005EA001F0B1F865A16248634A1268904726
:10346000207C002801D066A001E05D487C38014640
:103470005C485D4A126890475949383959485A4A58
:1034800012689047607C002801D061A001E0544898
:103490007C3801465348544A1268904700E000BF08
:1034A00000BF2020005D00283FD05D494D484E4AB6
:1034B000126890475BA14B484B4A126890475BA14A
:1034C0004848494A126890472120015D45485C4AB6
:1034D000126890475BA14348434A126890475AA13B
:1034E0004048414A126890472220015D3D485B4AAE
:1034F0001268904753A13B483B4A1268904758A135
:103500003848394A12689047A08C011235484C4A15
:1035100012689047A08CC1B23248494A126890475D
:1035200048A13048304A126890473D492D482E4AFC
:10353000126890474FA12B482B4A12689047218E62
:103540002848464A126890474EA12648264A1268E3
:103550009047E06A00282CD0002519E0E06A415D20
:103560002048374A1268904749A11E481E4A1268EF
:103570009047681CC117090F091809110901411A60
:1035800004D130A11748184A12689047681C85B2C8
:10359000208EA842E2DC208EC117090F09180911FC
:1035A0000901411A04D027A10E480F4A126890471A
:1035B00000BF1B490B480C4A1268904721A10948DB
:1035C000094A1268904700BF12E4000025752E25B5
:1035D0007520562028436F64653A2575290D0A0029
:1035E000FC330000004100403800002020204D61E5
:1035F000676E6574204465743A2020200000000046
:10360000594553202835206D696E290D0A000000A8
:103610005945532028304320316D696E290D0A0029
:10362000603100005B5544465D0D0A002020507259
:103630006F746F636F6C205665723A2030780000AB
:10364000500000200D0A000020205665726966793E
:10365000204D6F6E74683A20000000004C0000207E
:1036600020204D616E756661637420436F64653A16
:10367000203078005B524157204652414D455D2035
:1036800028000000206279746573290D0A0000008B
:1036900020000000F8B506460F4600255EE0745D88
:1036A000682C15D12F480078002811D100212E4810
:1036B0000182018A008A401C82B22B480282F238C1
:1036C000445401202749087004202849087043E029
:1036D0002448007800283EDD2348008AFF2813DDB7
:1036E000052022494872062008701F48806900287A
:1036F00003D01D48816905208847002019490870BA
:10370000002119480182F8BD1748018A008A401C2F
:1037100082B215480282F2384454162C1BD1F23082
:10372000008A062817DD1048018AC18105200F494B
:1037300008700D484069002804D00B48C1894269CF
:10374000F2389047002007490870084908700021A6
:1037500005480182D7E700BF681C85B2BD429EDBE9
:1037600000BFD0E724000020B4030020B4010020F3
:10377000FFB581B017461D460024FC2D02DD062052
:1037800005B0F0BD45480078002801D00620F7E7D5
:1037900010222046611C8CB240490A310A5421464D
:1037A000621C94B23D4A0A32029850542046611C71
:1037B0008CB211460D54002F0ED0002D0CDD0026CA
:1037C00008E0BA5D2046611C8CB234490A310A54C3
:1037D000701C86B2AE42F4DB214630480A30FFF757
:1037E0002FF92E490A310855601C84B20846F6307C
:1037F0004481002181810120FEF75CFA01202749E4
:10380000087000F053F800210120FEF753FA002061
:10381000FEF78EFA0020009003E000BF0098401CE5
:1038200000907D21C90000988842F6D30120FEF760
:103830007FFA0020009003E000BF0098401C009039
:10384000174900988842F7D3022014490870C81D10
:10385000F93041890122F638FEF7E6FA002000909F
:1038600003E000BF0098401C00900E490098884279
:10387000F7D301210020FEF71DFA03200749087045
:10388000FFF752F97D21C900401804494860002122
:1038900005480182C181002072E70000B4010020C8
:1038A00088130000801A0600B403002008B5002029
:1038B000009003E000BF0098401C0090024900986F
:1038C0008842F7D308BD00000071020001498861F9
:1038D00070470000B40300200149486170470000B0
:1038E000B403002010B58AB0202102A800F052FFD6
:1038F0000446002C03D0A1B202A8FFF7CBFE344847
:103900000078032862D1FFF70FF9314949688842EE
:103910005CD301202E494872062008702D4880692A
:10392000002803D02B488169012088472848007A65
:10393000032847DA2648007A401C254908720020EF
:103940000870C81DF930408900283FDDFFF7AEFF41
:1039500000210120FEF7AEF90020FEF7E9F9002072
:10396000019003E000BF0198401C01907D21C90037
:1039700001988842F6D30120FEF7DAF902201449B3
:103980000870C81DF93041890122F638FEF74CFA5B
:103990000020019003E000BF0198401C01900E49F7
:1039A00001988842F7D3032009490870FFF7BCF853
:1039B0007D21C90040180649486001210020FEF71A
:1039C00079F903E000200249087008720AB010BDBE
:1039D000B4010020B4030020801A060070470000E4
:1039E00010B5044618A11C481C4A126890472300D1
:1039F00000F07AFD0622040A10161C2218A11648AF
:103A0000164A126890471DE018A11348134A12681D
:103A1000904717E01AA11048104A1268904711E029
:103A20001BA10D480D4A126890470BE01CA10A48E3
:103A30000A4A1268904705E01EA10748074A126823
:103A4000904700BF00BF10BD4D6574657220457280
:103A5000726F723A200000000041004038000020E0
:103A600054696D656F75740A0D00000043686563E5
:103A70006B73756D204572726F720A0D0000000045
:103A8000496E76616C6964204672616D650A0D004D
:103A90004E414B2052656365697665640A0D0000EE
:103AA000427566666572204F766572666C6F770A3E
:103AB0000D000000556E6B6E6F776E204572726F51
:103AC000720A0D0070B58EB006460C46FF2001301C
:103AD000844207D8224631463048FCF70BFC304878
:103AE000048000BF2FA13048304A1268904730A1AF
:103AF0002D482E4A1268904737A12B482B4A12684E
:103B000090472BA12848294A1268904701AA2146CC
:103B10003046FFF749F8002803D001A8FFF73CF929
:103B200039E034A12048214A1268904739A11E4843
:103B30001E4A1268904721461B48394A126890472E
:103B400038A11948194A1268904700251BE0715D99
:103B50001548374A1268904736A11348134A12682D
:103B60009047681CC117090F091809110901411A6A
:103B700007D1611EA94204DD0AA10B480B4A126855
:103B80009047681C85B2A542E1DB2BA10648074A95
:103B90001268904700BF0EB070BD0000B400002056
:103BA0001E0000200A0D00000041004038000020E7
:103BB0003D3D3D3D3D3D3D3D3D3D3D3D3D3D3D3D35
:103BC0003D3D3D3D3D3D3D3D3D3D3D3D3D3D3D3D25
:103BD0003D3D3D3D0A0D000020204D65746572207D
:103BE000526573706F6E73652052656365697665A3
:103BF000640A0D005B4552524F525D204661696C6C
:103C0000656420746F207061727365206672616DE7
:103C1000650A0D00526177206672616D652028008B
:103C200048000020206279746573293A0A0D00006B
:103C300050000020200000000A0D3D3D3D3D3D3D6F
:103C40003D3D3D3D3D3D3D3D3D3D3D3D3D3D3D3DA4
:103C50003D3D3D3D3D3D3D3D3D3D3D3D3D3D0A0DF7
:103C60000A0D00007047000010B500213F20FEF74C
:103C70005FF91E4803210907086000204860C860FA
:103C80008860086188611A481A4908600020486005
:103C9000C86088600861886117481849086000207A
:103CA0004860C8608860092080020861002088613F
:103CB0001348144908600020486088600120800291
:103CC000086100208861FF2056300F4908600020FD
:103CD000486088600861886155200C4908600020B0
:103CE000486088600861886110BD00005555050076
:103CF000555555010001003055695500000200304E
:103D00005559000000030030000400300005003069
:103D10007047704710B500210F20FEF7F7F8002418
:103D200000E0641C7D20C0008442FAD30020FEF72E
:103D30002FF900210420FEF735F9064806490860EE
:103D4000064908600320FEF7D1F800214020FEF765
:103D5000AFF810BD0048E801040000200800002072
:103D600000BF0548806AC0B25528FAD172B6034830
:103D7000034908607047000000F00040A095695AB0
:103D8000001A004000B5A9B061A16248624A1268F9
:103D9000904762A15F48604A126890476DA15D48F4
:103DA0005D4A1268904776A15A485B4A126890476C
:103DB0005AA15848584A1268904755A15548564A42
:103DC0001268904755A15348534A1268904775A10D
:103DD0005048514A1268904750A14E484E4A1268C6
:103DE0009047182278A116A8FCF73AFA1CAA1521C8
:103DF00016A8FEF7D9FE002803D01CA8FEF7CCFFBA
:103E000004E077A14348444A1268904743A14148DF
:103E1000414A126890477AA13E483F4A126890474B
:103E20003EA13C483C4A126890471C227DA10FA845
:103E3000FCF716FA1CAA19210FA8FEF7B5FE0028F8
:103E400003D01CA8FEF7A8FF04E07DA13148324A48
:103E50001268904731A12F482F4A1268904780A1DD
:103E60002C482D4A126890472CA12A482A4A1268E9
:103E700090471C2283A108A8FCF7F2F91CAA19217B
:103E800008A8FEF791FE002803D01CA8FEF784FFC7
:103E900004E083A11F48204A126890471FA11D48D3
:103EA0001D4A1268904786A11A481B4A126890471B
:103EB0001AA11848184A126890471C2289A101A823
:103EC000FCF7CEF91CAA192101A8FEF76DFE002807
:103ED00003D01CA8FEF760FF04E089A10D480E4A3C
:103EE000126890470DA10B480B4A126890478CA1AD
:103EF0000848094A1268904708A10648064A12680D
:103F0000904703A10348044A1268904729B000BDB6
:103F10000D0A000000410040380000203D3D3D3DBD
:103F20003D3D3D3D3D3D3D3D3D3D3D3D3D3D3D3DC1
:103F30003D3D3D3D3D3D3D3D3D3D3D3D3D3D3D3DB1
:103F40003D3D3D3D3D3D3D3D3D3D3D3D3D3D0D0A04
:103F500000000000202053656F756C205761746568
:103F600072204D657465722050726F746F636F6C50
:103F70002050617273657220546573740D0A0000DD
:103F8000202054657374696E672056312E312C20C1
:103F900056312E322C2056312E332C2056312E34D1
:103FA0000D0A00005445535420313A2050726F746A
:103FB0006F636F6C2056312E312028323031332E12
:103FC0003036290D0A000000680F0F680801780FCD
:103FD00012345678841C1300001234C816000000F6
:103FE0005B4552524F525D2056312E312050617246
:103FF00073696E67204661696C65640D0A00000094
:104000005445535420323A2050726F746F636F6C72
:104010002056312E322028323032312E3035290DC3
:104020000A000000681313680801780F12345678EC
:10403000A41C130000567812050041501600000021
:104040005B4552524F525D2056312E3220506172E4
:1040500073696E67204661696C65640D0A00000033
:104060005445535420333A2050726F746F636F6C11
:104070002056312E332028323032332E3031290D64
:104080000A000000681313680801780F123456788C
:10409000BF1C130090123413060041861600000066
:1040A0005B4552524F525D2056312E332050617283
:1040B00073696E67204661696C65640D0A000000D3
:1040C0005445535420343A2050726F746F636F6CB0
:1040D0002056312E342028323032342E3037290DFC
:1040E0000A000000681313680801780F123456782C
:1040F000E51CD30011223314070041AB1600000069
:104100005B4552524F525D2056312E342050617221
:1041100073696E67204661696C65640D0A00000072
:10412000202050726F746F636F6C205061727365E2
:1041300072205465737420436F6D706C6574650DE7
:104140000A00000070B505460C466869C007C00F3C
:10415000002801D1207070BD2846FDF7F9FF2070BE
:104160000120F8E738B504460021009101231A46E2
:1041700069462046FDF7B2FF6846007838BD13B5A2
:10418000044601231A4601A92046FDF7E5FF1CBDA0
:10419000FEB505460C460A212046FCF716F9CEB2BC
:1041A0000A212046FCF711F90A210090FCF70DF9CD
:1041B000CFB264212046FCF708F90A210090FCF7F1
:1041C00004F9C8B2019001983030C1B22846FFF717
:1041D000D6FF38463030C1B22846FFF7D0FF304610
:1041E0003030C1B22846FFF7CAFFFEBDF0B585B03A
:1041F00005460C460A212046FCF7E7F8CEB20A2114
:104200002046FCF7E2F80A210090FCF7DEF8CFB276
:1042100064212046FCF7D9F80A210090FCF7D5F874
:10422000C8B203907D21C9002046FCF7CEF80A21D0
:104230000090FCF7CAF8C8B2029015492046FCF776
:10424000C4F80A210090FCF7C0F8C8B201900198A8
:104250003030C1B22846FFF792FF02983030C1B229
:104260002846FFF78CFF03983030C1B22846FFF78D
:1042700086FF38463030C1B22846FFF780FF30460F
:104280003030C1B22846FFF77AFF05B0F0BD00001C
:1042900010270000F3B589B00C460A212046FCF730
:1042A0008AF80D460A212046FCF785F80A2101907C
:1042B000FCF781F80E4664212046FCF77CF80A21C1
:1042C0000190FCF778F80F467D21C9002046FCF7E5
:1042D00072F80A210190FCF76EF8089139492046DE
:1042E000FCF769F80A210190FCF765F80791364957
:1042F0002046FCF760F80A210190FCF75CF8069173
:1043000032492046FCF757F80A210190FCF753F890
:1043100005912F492046FCF74EF80A210190FCF741
:104320004AF804912B492046FCF745F80A210190F0
:10433000FCF741F8039128492046FCF73CF80A2194
:104340000190FCF738F8029102983030C1B2099818
:10435000FFF715FF03983030C1B20998FFF70FFF40
:1043600004983030C1B20998FFF709FF0598303042
:10437000C1B20998FFF703FF06983030C1B209981F
:10438000FFF7FDFE07983030C1B20998FFF7F7FE3E
:1043900008983030C1B20998FFF7F1FE3846303046
:1043A000C1B20998FFF7EBFE30463030C1B2099830
:1043B000FFF7E5FE28463030C1B20998FFF7DFFE6F
:1043C0000BB0F0BD10270000A086010040420F0096
:1043D0008096980000E1F50500CA9A3BF8B50746BB
:1043E0000D46012600BFB100284608410407240FEE
:1043F000092C02DD2046373001E020463030C1B2C2
:104400003846FFF7BCFE3046711ECEB20028EAD116
:10441000F8BDF8B507460D46032600BFB100284693
:1044200008410407240F092C02DD2046373001E043
:1044300020463030C1B23846FFF7A1FE3046711E2B
:10444000CEB20028EAD1F8BDF8B507460D460726DA
:1044500000BFB1002846C8400407240F092C02DD24
:104460002046373001E020463030C1B23846FFF7F1
:1044700086FE3046711ECEB20028EAD1F8BD70B576
:1044800006460D462C4604E02178641C3046FFF7B2
:1044900076FE20780028F7D170BD000070B5044684
:1044A0000D4629462046FFF7EAFF02A12046FFF706
:1044B000E6FF70BD0A0D0000F8B5040C8BB226466D
:1044C00082B25E43104658430D0C370C360400216F
:1044D0008019164679416E43370C360480192646FA
:1044E00079416E438919F8BD30B47446641E25784D
:1044F000641CAB4204D3635D5B00E31830BC184717
:104500001D46F8E74900CA020243100000D004200B
:104510004A0D01D001221043044A490D914201D1B4
:1045200002210843012800D105207047FF07000041
:1045300010B5002819DB1A4A03231B02D21883087E
:104540009B00D2588307DC0EFF23A3409A438B07BE
:104550001B0E8407E40EA3401A43114B03242402CC
:104560001B198408A4001A5118E00E4A03071B0FF8
:10457000083B9B089B00D2588307DC0EFF23A34017
:104580009A438B071B0E8407E40EA3401A43054B86
:104590000407240F083CA408A4001A5110BD000011
:1045A00000E100E01CED00E030380A2801D20120D3
:1045B00070470020704700000FB400B5FFB084B012
:1045C00085A8019002A8019A8499FBF781FE00203A
:1045D000019002A90448054A126890477FB004B0D0
:1045E00008BC04B01847000000410040380000201B
:1045F0001CB5022201211F48FDF7FAFA022201210F
:104600001C48FDF7D3FA022200211A48FDF7F0FA00
:10461000022200211748FDF7C9FA6846FDF7C8FCD9
:104620004B204002009069461348FDF7D5FC134823
:104630001349086013481449086014481449086075
:104640001448154908601548154908601548164969
:104650000860164816490860164817490860174848
:104660001749086017481849086018481849086031
:104670001CBD000000010030004100407F440000EC
:10468000380000209D4400003C0000207F410000D5
:1046900040000020DD4300005000002013440000D3
:1046A00054000020494400005800002091410000BF
:1046B00044000020ED410000480000209542000029
:1046C0004C000020654100005C00002045410000D6
:1046D00060000020FEB50446207A002804D001289E
:1046E00004D0022806D103E0102503E0082501E0EC
:1046F000012500BF00BF2668676829463046FBF7E2
:104700005AFE39460090FBF756FE401E0190019874
:1047100080B201490862FEBD005C0040FFF7A4FAC8
:10472000FFF7F8FAFDF704FA7D21C9000C4800688C
:10473000FBF741FE0446601E0A49884200D90CE09E
:10474000601E094948610321081FFFF7F1FE0020A0
:10475000054988610720086100BF00F007F80000E4
:1047600004000020FFFFFF0000E000E008B5FDF7B7
:104770000FFAFDF7A7FD62B60020009002E0009856
:10478000401C0090024900988842F8D3FEF72AF8AE
:1047900020A10700F8B505460C462E46002700214B
:1047A0000846FDF787FA0FE01048C1683030405CDA
:1047B0003070761C0D48007B401CC006C00E0B49B3
:1047C000C8607F1C601EC4B2002C09DD0748007A57
:1047D000C006C00E0549097BC906C90E8842E3D14F
:1047E00001210020FDF766FA3846F8BD640000207C
:1047F000FEB504460D460D4806682F013946304681
:10480000FBF7D9FD401E02900298401C7843301AF5
:104810000090009908023946FBF7CDFD01900298FF
:1048200080B220620198C0B26062FEBD2C00002000
:1048300010B500290AD00878002807D00548784428
:10484000FDF72AF9002801D0002010BD0248784465
:1048500010BD0000BA030000B203000010B500292B
:104860000AD00878002807D005487844FDF714F9E5
:10487000002801D0002010BD0248784410BD00007F
:10488000AA030000A203000003B40248784484464F
:1048900003BC6047A3C4FFFF03B4024878448446C6
:1048A00003BC60470DC7FFFF2A2A2A2A2A2A2A2A80
:1048B0002A2A2A2A2A2A2A2A2A2A2A2A2A2A2A2A58
:1048C0002A2A2A2A2A2A2A2A2A2A2A2A2A2A2A2A48
:1048D0002A2A2A2A2A2A2A2A0A0D53656F756C2049
:1048E0004469676974616C205761746572204D6515
:1048F0007465722050726F746F636F6C2056312E26
:10490000317E56312E34200A0D20202D204D435566
:104910003A20202020202020204133314C313233D6
:10492000200A0D20202D20436F72653A2020202080
:10493000202020436F727465782D4D302B200A0D96
:1049400020202D2050726F746F636F6C3A202020EE
:10495000313230306270732C20382D4E2D31200AC8
:104960000D54617267657420506572697068657274
:10497000616C3A204C5055415254200A0D436F75DA
:104980006E746572706172743A202020202020209D
:104990004469676974616C205761746572204D6564
:1049A000746572200A0D50726F746F636F6C2056BD
:1049B000657273696F6E733A2056312E312C205612
:1049C000312E322C2056312E332C2056312E3420CD
:1049D0000A0D4175746F20446574656374696F6E68
:1049E0003A20202020456E61626C6564200A0D55D6
:1049F000415254205458442050696E3A20202020BF
:104A00002020504233284C5054584429200A0D5538
:104A1000415254205258442050696E3A20202020A0
:104A20002020504234284C5052584429200A0D2A44
:104A30002A2A2A2A2A2A2A2A2A2A2A2A2A2A2A2AD6
:104A40002A2A2A2A2A2A2A2A2A2A2A2A2A2A2A2AC6
:104A50002A2A2A2A2A2A2A2A2A2A2A2A2A2A2A0AD6
:104A60000D50726573732027742720746F20727540
:104A70006E2050726F746F636F6C2050617273653B
:104A80007220546573740A0D2A2A2A2A2A2A2A2A8D
:104A90002A2A2A2A2A2A2A2A2A2A2A2A2A2A2A2A76
:104AA0002A2A2A2A2A2A2A2A2A2A2A2A2A2A2A2A66
:104AB0002A2A2A2A2A2A2A2A0A0D0A0D0000000078
:104AC00000000F00140019002000280032005000E0
:104AD00064009600C800FA002C01000000000000ED
:104AE0000000000030313233343536373839414236
:104AF0004344454640305800303132333435363740
:104B000038396162636465664030780004000008EB
:104B100000000000000000020001000010303132EF
:104B200033343536373839616263646566787000CE
:104B300030313233343536373839414243444546D3
:104B40005850000002400000000000A000000000DB
:104B500005400000000000C8000000000C400000FC
:104B60000000409C00000000194000000020BCBE76
:104B70000000000034400000BFC91B8E000000048C
:104B8000B5400000504BCFD06607E2CF01000000D7
:104B90006C4100003E8251AADFEEA7340100000004
:104BA000D9420000DCB5A0E23A301F97FFFFFFFFBB
:104BB000B4450000FD25A0C8E9A3C14FFFFFFFFFDA
:104BC000FF3F00000000008000000000FF3F0000E9
:104BD0000000008000000000244D000000000020C4
:104BE0006400000004010000884D00006400002003
:104BF000CC060000200100001C0000004300000063
:104C0000F8FFFFFF0C0000000E0000000F00000086
:104C10002E0000001001000043000000F8FFFFFF1D
:104C200000404040404040404040414141414140BF
:104C30004040404040404040404040404040404074
:104C40004005020202020202020202020202020203
:104C50000220202020202020202020020202020208
:104C60000202909090909090101010101010101060
:104C7000101010101010101010101010020202026C
:104C800002028888888888880808080808080808B0
:104C900008080808080808080808080802020202AC
:104CA00040000000000000000000000000000000C4
:104CB00000000000000000000000000000000000F4
:104CC00000000000000000000000000000000000E4
:104CD00000000000000000000000000000000000D4
:104CE00000000000000000000000000000000000C4
:104CF00000000000000000000000000000000000B4
:104D000000000000000000000000000000000000A3
:104D10000000000000000000000000000000000093
:104D20000000000000000000000000000000000083
:104D30000048E8010024F40000800000409C0000CE
:104D40000000000000000000000000000000000063
:104D50000000000000000000000000000000000053
:104D60000000000000000000000000000000000043
:104D70000000000000000000000000000000000033
:084D800000000000000000002B
:020000041FFFDC
:10F2000073A2C869FFFF0000FFFF0000DB96FFFF4D
:10F21000FFAAFFFFFFFFFFFFFFFFFFFFFFFFFFFF53
:10F22000FFFFFFFFFFFFFFFFFFFFFFFFFFFFFFFFEE
:10F23000FFFFFFFFFFFFFFFFFFFFFFFFFFFFFFFFDE
:04F24000FFFFFFFFCE
:020000041FFFDC
:10F40000E2E2E2E2FFFFFFFFFFFFFFFFFFFFFFFF80
:10F41000FFFFFFFFFFFFFFFFFFFFFFFFFFFFFFFFFC
:10F42000FFFFFFFFFFFFFFFFFFFFFFFFFFFFFFFFEC
:10F43000FFFFFFFFFFFFFFFFFFFFFFFFFFFFFFFFDC
:10F44000FFFFFFFFFFFFFFFFFFFFFFFFFFFFFFFFCC
:10F45000FFFFFFFFFFFFFFFFFFFFFFFFFFFFFFFFBC
:10F46000FFFFFFFFFFFFFFFFFFFFFFFFFFFFFFFFAC
:10F47000FFFFFFFFFFFFFFFFFFFFFFFFE2E2E2E210
:020000041FFFDC
:10F60000E3E3E3E3FFFFFFFFFFFFFFFFFFFFFFFF7A
:10F61000FFFFFFFFFFFFFFFFFFFFFFFFFFFFFFFFFA
:10F62000FFFFFFFFFFFFFFFFFFFFFFFFFFFFFFFFEA
:10F63000FFFFFFFFFFFFFFFFFFFFFFFFFFFFFFFFDA
:10F64000FFFFFFFFFFFFFFFFFFFFFFFFFFFFFFFFCA
:10F65000FFFFFFFFFFFFFFFFFFFFFFFFFFFFFFFFBA
:10F66000FFFFFFFFFFFFFFFFFFFFFFFFFFFFFFFFAA
:10F67000FFFFFFFFFFFFFFFFFFFFFFFFE3E3E3E30A
:04000005000000C136
:00000001FF
