:020000040000FA
:10000000300700209D010000111200000D0B0000C0
:1000100000000000000000000000000000000000E0
:100020000000000000000000000000009516000025
:100030000000000000000000E91500009716000015
:10004000AF010000AF010000AF010000AF010000F0
:10005000AF010000AF010000AF010000AF010000E0
:10006000AF010000AF010000AF010000AF010000D0
:10007000AF010000AF010000AF010000AF010000C0
:10008000AF010000AF010000AF010000AF010000B0
:10009000AF010000AF010000AF010000AF010000A0
:1000A000AF010000790D000000000000000000001A
:1000B000AF010000AF010000AF010000AF01000080
:1000C00000F002F800F03EF80CA030C80838241800
:1000D0002D18A246671EAB4654465D46AC4201D180
:1000E00000F030F87E460F3E0FCCB6460126334274
:1000F00000D0FB1AA246AB4633431847A81D0000A8
:10010000C81D0000103A02D378C878C1FAD8520747
:1001100001D330C830C101D504680C6070470000BD
:100120000023002400250026103A01D378C1FBD813
:10013000520700D330C100D50B6070471FB51FBDFB
:1001400010B510BD00F057F91146FFF7F7FF01F0A9
:1001500075FD00F06FF903B4FFF7F2FF03BC00F088
:1001600075F9000070B505460C46164602E00FCC46
:100170000FC5103E102EFAD2082E02D303CC03C5B1
:10018000083E042E07D301CC01C5361F03E02178B9
:100190002970641C6D1C761EF9D270BD074880471B
:1001A00007480047FEE7FEE7FEE7FEE7FEE7FEE75B
:1001B00004480549054A064B70470000E516000053
:1001C000C10000003004002030070020300500206E
:1001D00030050020F8B5042A2CD3830712D00B7801
:1001E000491C0370401C521E83070BD00B78491C1E
:1001F0000370401C521E830704D00B78491C037007
:10020000401C521E8B079B0F05D0C91ADF0020230C
:10021000DE1B08C90AE0FFF7A5FFF8BD1D4608C9A7
:10022000FD401C46B4402C4310C0121F042AF5D2D6
:10023000F308C91A521EF0D40B78491C0370401CF5
:10024000521EEAD40B78491C0370401C012AE4D4E6
:1002500009780170F8BD01E004C0091F0429FBD230
:100260008B0701D50280801CC90700D0027070473F
:1002700000290BD0C30702D00270401C491E02297E
:1002800004D3830702D50280801C891EE3E7002285
:10029000EEE70022DFE7002203098B422CD3030A9A
:1002A0008B4211D300239C464EE003460B433CD4C3
:1002B000002243088B4231D303098B421CD3030A2B
:1002C0008B4201D394463FE0C3098B4201D3CB015B
:1002D000C01A524183098B4201D38B01C01A52418B
:1002E00043098B4201D34B01C01A524103098B428F
:1002F00001D30B01C01A5241C3088B4201D3CB007A
:10030000C01A524183088B4201D38B00C01A52415C
:1003100043088B4201D34B00C01A5241411A00D20C
:1003200001465241104670475DE0CA0F00D0494275
:10033000031000D34042534000229C4603098B42E5
:100340002DD3030A8B4212D3FC22890112BA030A6D
:100350008B420CD3890192118B4208D389019211EF
:100360008B4204D389013AD0921100E08909C30974
:100370008B4201D3CB01C01A524183098B4201D376
:100380008B01C01A524143098B4201D34B01C01A61
:10039000524103098B4201D30B01C01A5241C308D9
:1003A0008B4201D3CB00C01A524183088B4201D348
:1003B0008B00C01A5241D9D243088B4201D34B0063
:1003C000C01A5241411A00D20146634652415B10A5
:1003D000104601D34042002B00D549427047634686
:1003E0005B1000D3404201B50020C046C04602BDAC
:1003F000704770477047754600F024F8AE46050018
:1004000069465346C008C000854618B020B5FFF7BE
:10041000CFFE60BC00274908B6460026C0C5C0C54F
:10042000C0C5C0C5C0C5C0C5C0C5C0C5403D4900E8
:100430008D46704710B50446C046C0462046FFF7BB
:100440008AFE10BD00487047D003002001491820E3
:10045000ABBEFEE7260002007047000010B586B074
:1004600001F056FB14220EA16846FFF77BFE002028
:10047000059002E00598401C05900E4905988842B9
:10048000F8D3002406E06846015D0B4801F059F9F5
:10049000601CC4B26846005D0028F4D106B010BDEF
:1004A00055415254312044454255472054455354F8
:1004B0000A0D0000A08601000041004010B503496C
:1004C0000348044A1268904710BD0000101D000048
:1004D000004100403800002070B503460C46082C4F
:1004E0000CDAA506280E99680F2585400E46AE4306
:1004F000314615468540294399600EE02546083D62
:10050000ECB2A506280ED9680F2585400E46AE43ED
:100510003146154685402943D96070BDF0B5034684
:100520001446032C00D101224E06350E186803260E
:10053000AE400746B74338461646AE4030431860D3
:10054000012C01D0032C0BD1586801268E400746A0
:10055000B7433846032C02D101268E403043586001
:10056000F0BD0000024909680143014A116070476B
:100570000014004000B5024618484169130001F01C
:100580007DFA0906090C0F1215191D2125000120FD
:1005900001431DE0042001431AE01020014317E04D
:1005A0004020014314E08020014311E001200003BA
:1005B00001430DE001204003014309E001208003D5
:1005C000014305E00120C003014301E0012000BD1B
:1005D00000BF024841610020F9E70000005C0040D4
:1005E00010B502460C46130001F048FA050406084F
:1005F0000A0C0E00012109E0042107E0102105E0AA
:10060000402103E0802101E0012010BD00BF012C4A
:1006100005D1064800690843044B186104E003480B
:1006200000698843014B18610020EEE7005C004040
:100630000146002901D10120704707480068086081
:100640004B204002486000200872032048720020BE
:100650008872C87200BFEFE7080000200146054815
:10066000006840084000CA07D20F1043014A1060DA
:1006700000207047005C004001484069C0B27047EC
:10068000005C004010B50446002C01D1012010BDD3
:100690000121C80300F0F4F80120C00300F000F9C4
:1006A000204601F0A7FA207A4001617A4902084306
:1006B000A17A09030843E17AC90108430C300449CF
:1006C000086000F041F800F03FF80020DFE700008C
:1006D000005C0040F0B504460D4616462246294609
:1006E0000023012E19D115E0154F03E0002F00D192
:1006F00006E07F1E13484069C007C00F0028F5D0F0
:1007000000BF002F00D107E000F01EF81070521C4F
:10071000491E5B1C0029E7D110E00CE00948406944
:10072000C007C00F002800D107E000F00DF81070DE
:10073000521C5B1C491E0029F0D100BF1846F0BDB9
:10074000FFFF0000005C004001488069C0B27047B4
:10075000005C0040F7B5009D019C0026029801282E
:100760001CD118E028786D1C00F030F8154F03E01C
:10077000002F00D106E07F1E134840690421084085
:100780000028F5D000BF002F00D106E00120FFF7C0
:10079000F1FE641E761C002CE4D110E00CE00A4847
:1007A000406904210840002800D107E028786D1C2A
:1007B00000F00CF8641E761C002CF0D100BF30460F
:1007C000FEBD0000FFFF0000005C00400146024843
:1007D000C161002070470000005C00400C4A526874
:1007E0001207D20F002A05D1094A5268094B1A4351
:1007F000074B5A600C2202430A43054B5A611A46C2
:10080000526980239A438032014B5A61704700003D
:1008100000180040080007A50146054A526890B23A
:10082000044A104302468A431046014A506070470A
:1008300000180040000007A5054A5268054B1A4001
:10084000054BD2180A430243014B5A60704700001F
:1008500000180040FFCF0000000007A5014A106209
:100860005162704700180040044A12688243034BEB
:100870001A601A4612680A431A607047401800400E
:10088000002905D0054A526A0243044B5A6204E02B
:10089000024A526A8243014B5A6270470018004074
:1008A000054A5062002101E000BF491C0A29FBD320
:1008B0000022014B5A627047401800400249014330
:1008C000024A11607047000000000A5700180040FB
:1008D000014A9060D160704700180040014600292D
:1008E00001D1012070474B204002086003200871AD
:1008F00000204871887100BFF4E7000070B504461D
:100900000E46002C01D1012070BD3948844203D12C
:1009100001210420FFF7B4FF3648844203D10121AE
:100920000820FFF7ADFF01E02068C5B26069C0078D
:10093000C00F0028F8D100BF6069202108400028BE
:10094000FAD000206060E06020616069C5B2A068F4
:10095000C5B229480068294908602046316801F07D
:10096000B7F9E0684021084005463079002806D0F4
:10097000012806D0022807D0032808D108E000BFCC
:1009800009E00120054306E00220054303E000BF23
:100990000320054300BF00BF7079002818D008204D
:1009A00005437079012806D0022806D0032807D015
:1009B00004280BD107E000BF09E01020054306E042
:1009C0002020054303E03020054300E000BF00BFC6
:1009D000B079002805D0012802D10420054301E0A8
:1009E00000BF00BF00BF6806400EE06000208BE73C
:1009F0000040004000410040080000202C00002082
:100A0000FFB504461646019B32460025039801288F
:100A100019D115E0164F03E0002F00D105E07F1E2D
:100A20006069C007C00F0028F6D000BF002F00D1BA
:100A300008E0204600F01EF818705B1C521E6D1C6A
:100A4000002AE7D110E00CE06069C007C00F002861
:100A500000D108E0204600F00DF818705B1C521E13
:100A60006D1C002AF0D100BF284604B0F0BD000084
:100A7000FFFF000001460868C0B27047FFB504469A
:100A8000019D029B00260398012820D115E01A4FF2
:100A900003E0002F00D105E07F1E6069202108409F
:100AA0000028F6D000BF002F00D108E029786D1C87
:100AB000204600F023F85B1E761C002BE7D100BF18
:100AC00000BF60694006C00F0028FAD010E00CE0BB
:100AD000606920210840002800D108E029786D1CB9
:100AE000204600F00BF85B1E761C002BF0D100BFF7
:100AF000304604B0F0BD0000FFFF00000246002AAF
:100B000001D10120704711600020FBE700BFFEE724
:100B100038B521E0002201216846FFF7DBFD0446DD
:100B2000002C18D00E48007BC106C90E0C48007A74
:100B3000401CC006C00E81420ED0684601780848AD
:100B40008268303081543038007A401CC006C00EB4
:100B50000349886000E000E0DCE700BF38BD00002A
:100B60006400002010B500210120FFF739FD12E0DC
:100B70001B494A681031501800220121FFF7EAFD95
:100B8000002807D016480079401CC006C00E144942
:100B9000486000E009E012480078C006C00E104925
:100BA0000979C906C90E8842E2D100BF0C48007815
:100BB000C006C00E0A490979C906C90E884207D184
:100BC00000210120FFF70CFD00200649087006E017
:100BD00001200449087001210846FFF701FD10BDFE
:100BE000640000201C00002000B585B000204749AB
:100BF000087047498860C8600860486045A14E4851
:100C00004E4A126890474EA14B484C4A1268904792
:100C1000022203215348FFF781FC0222032151489D
:100C2000FFF75AFC022204214E48FFF777FC02220C
:100C300004214C48FFF750FC02A8FFF7F9FC4B20B9
:100C400000010390002103208002FFF70DFE4648BB
:100C50000068029002A8FFF715FD01210020FFF7B0
:100C6000BFFC01210846FFF7BBFC0120FFF7F6FCA3
:100C70000321192000F010FF1920002809DB00BF14
:100C800000BFC206D20E01219140384A116000BF58
:100C900000BF00BF01204006FFF764FC0020019068
:100CA00002E00198401C0190314901988842F8D334
:100CB000FF2001900122114601A8FFF74BFD002003
:100CC000009002E00098401C00902A490098884259
:100CD000F8D30020FFF7C2FC0020009002E000984B
:100CE000401C00907D21C90000988842F7D3012064
:100CF000FFF7B4FC0020009002E00098401C009038
:100D00001C4900988842F8D305B000BD1C000020A3
:100D1000640000205042332077617320636F6E6659
:100D20006967757265642061732061204C50545866
:100D3000442E200A0D000000004100403800002031
:100D40005042342077617320636F6E6669677572F5
:100D500065642061732061204C505258442E200A53
:100D60000D0A0D00000100300800002000E100E045
:100D7000A08601001027000010B500F001F810BD9A
:100D800010B5FFF779FC0446E007C00F002801D03A
:100D9000FFF7BEFE04202040042801D1FFF7E2FE49
:100DA00010BD00001CB523A0006801905B24012544
:100DB00000F0BEF8204800F0EBF9204800F0E2F91E
:100DC0001FA12C482C4A126890472CA129482A4A76
:100DD000126890472CE000F0E1F932480068401CAE
:100DE00030490860084600682F49884216D3002021
:100DF0002C4908602DA11F481F4A12689047012303
:100E000001AA2146284600F00FF90646002E04D01C
:100E100034A11848184A1268904700BF002000907B
:100E200003E000BF0098401C009000986428F8D3AD
:100E3000D1E700005C000000F9120000151200006C
:100E40000A0D53656F756C204469676974616C2085
:100E50005761746572204D657465722050726F74AD
:100E60006F636F6C20496E697469616C697A65643F
:100E70000A0D000000410040380000204261756406
:100E8000726174653A2031323030206270732C20E8
:100E9000466F726D61743A20382D4E2D310A0D0A5D
:100EA0000D0000002000002020A107000A0D53655E
:100EB0006E64696E6720636F6D6D616E6420746F20
:100EC000206D6574657220284672616D653A203127
:100ED000302D35422D30312D35432D3136292E2EF2
:100EE0002E0A0D004661696C656420746F2073657D
:100EF0006E6420636F6D6D616E640A0D000000000A
:100F000010B502460B460020002103E0545C60400F
:100F10004C1CA1B29942F9DB10BD000003480068E7
:100F200002490968491C014A1160704728000020E5
:100F300010B5872189000448FFF7ABF9002002496A
:100F40000870487210BD0000B4010020F8B50646D4
:100F50000F4600255EE0745D682C15D12F4800789F
:100F6000002811D100212E480182018A008A401CEC
:100F700082B22B480282F23844540120274908707B
:100F800004202849087043E02448007800283EDD0A
:100F90002348008AFF2813DD0520224948720620D5
:100FA00008701F488069002803D01D48816905200A
:100FB0008847002019490870002119480182F8BDAE
:100FC0001748018A008A401C82B215480282F23812
:100FD0004454162C1BD1F230008A062817DD104825
:100FE000018AC18105200F4908700D484069002819
:100FF00004D00B48C1894269F23890470020074964
:10100000087008490870002105480182D7E700BF31
:10101000681C85B2BD429EDB00BFD0E724000020E3
:10102000B4030020B4010020FFB581B017461D466F
:101030000024FC2D02DD062005B0F0BD45480078F7
:10104000002801D00620F7E710222046611C8CB250
:1010500040490A310A542146621C94B23D4A0A3280
:10106000029850542046611C8CB211460D54002F3A
:101070000ED0002D0CDD002608E0BA5D2046611C74
:101080008CB234490A310A54701C86B2AE42F4DB89
:10109000214630480A30FFF733FF2E490A31085500
:1010A000601C84B20846F630448100218181012011
:1010B000FFF796FA01202749087000F053F8002145
:1010C0000120FFF78DFA0020FFF7C8FA00200090FA
:1010D00003E000BF0098401C00907D21C9000098EB
:1010E0008842F6D30120FFF7B9FA0020009003E010
:1010F00000BF0098401C0090174900988842F7D321
:10110000022014490870C81DF93041890122F638BF
:10111000FFF720FB0020009003E000BF0098401C78
:1011200000900E4900988842F7D301210020FFF774
:1011300057FA032007490870FFF7F0FE7D21C90028
:10114000401804494860002105480182C1810020FF
:1011500072E70000B401002088130000801A060026
:10116000B403002008B50020009003E000BF009801
:10117000401C0090024900988842F7D308BD000047
:10118000007102000149886170470000B40300202B
:101190000149486170470000B403002010B588B0D1
:1011A0002021684600F066FD0446002C03D0A1B261
:1011B0006846FFF7CBFE14480078032822D1FFF7DA
:1011C000ADFE1149496888421CD301200E4948727E
:1011D000062008700D488069002803D00B488169FB
:1011E000012088470848007A032807DA0648007A71
:1011F000401C054908720020087003E000200249E5
:101200000870087208B010BDB4010020B4030020BB
:101210007047000010B5044618A11C481C4A12680B
:101220009047230000F02AFC0622040A10161C2214
:1012300018A11648164A126890471DE018A11348D5
:10124000134A1268904717E01AA11048104A126812
:10125000904711E01BA10D480D4A126890470BE022
:101260001CA10A480A4A1268904705E01EA10748D7
:10127000074A1268904700BF00BF10BD4D657465F6
:1012800072204572726F723A2000000000410040E7
:101290003800002054696D656F75740A0D000000F8
:1012A000436865636B73756D204572726F720A0DCA
:1012B00000000000496E76616C6964204672616DC1
:1012C000650A0D004E414B20526563656976656481
:1012D0000A0D0000427566666572204F766572667B
:1012E0006C6F770A0D000000556E6B6E6F776E2085
:1012F0004572726F720A0D0070B504460D46FF20EC
:101300000130854207D82A4621466248FEF762FF2F
:101310006148058000BF61A16148624A1268904738
:1013200061A15F485F4A1268904769A15C485D4AC5
:10133000126890475CA15A485A4A126890476DA1BA
:101340005748584A12689047294655486D4A1268CE
:1013500090476DA15248534A126890476DA150487A
:10136000504A1268904700261BE0A15D4C486E4A27
:10137000126890476DA14A484A4A12689047701C0B
:10138000C117090F091809110901411A07D1691E6E
:10139000B14204DD41A14248424A12689047701CA4
:1013A00086B2AE42E1DB62A13D483E4A12689047F8
:1013B000062D69DB64A13A483A4A126890472178C1
:1013C0003748594A1268904734A13548354A12685F
:1013D000904761A13248334A12689047617830489B
:1013E000514A1268904760A12D482E4A12689047D2
:1013F00061782B485D4A126890475DA12848294AC8
:10140000126890475DA12648264A12689047A17845
:101410002348454A1268904720A12148214A126872
:1014200090475AA11E481F4A12689047E1781C480D
:101430003D4A1268904719A119481A4A1268904704
:101440006078801DA8421FDC54A11548154A126817
:101450009047A81E215C1248334A126890470FA19A
:101460000F48104A1268904750A10D480D4A126863
:101470009047681E215C0A482B4A1268904707A1D2
:101480000748084A126890474CA10548054A126867
:10149000904770BDB40000201E0000200A0D00001F
:1014A00000410040380000203D3D3D3D3D3D3D3D7B
:1014B0003D3D3D3D3D3D3D3D3D3D3D3D3D3D3D3D5C
:1014C0003D3D3D3D3D3D3D3D3D3D3D3D0A0D000029
:1014D00020204D6574657220526573706F6E736560
:1014E0002028307836382054726967676572290A77
:1014F0000D0000004672616D65204C656E67746872
:101500003A200000480000202062797465730A0DBB
:10151000000000000A0D4672616D6520284845589C
:10152000293A0A0D000000005000002020000000B1
:101530000A0D0A0D4672616D6520416E616C79730A
:1015400069733A0A0D00000020205354415254316F
:1015500020203A203078000020204C454E47544847
:1015600031203A203078000020280000440000207C
:10157000206279746573290A0D00000020204C4513
:101580004E47544832203A203078000020205354EF
:101590004152543220203A20307800002020434825
:1015A00045434B53554D3A20307800002020454E9E
:1015B0004420202020203A20307800003D3D3D3D51
:1015C0003D3D3D3D3D3D3D3D3D3D3D3D3D3D3D3D4B
:1015D0003D3D3D3D3D3D3D3D3D3D3D3D3D3D3D3D3B
:1015E0000A0D0A0D000000007047000010B5002130
:1015F0003F20FFF733F91E48032109070860002048
:101600004860C8608860086188611A481A490860A3
:1016100000204860C86088600861886117481849E0
:10162000086000204860C860886009208002086166
:1016300000208861134814490860002048608860D1
:1016400001208002086100208861FF2056300F4988
:1016500008600020486088600861886155200C4956
:1016600008600020486088600861886110BD000043
:101670005555050055555501000100305569550077
:101680000002003055590000000300300004003013
:10169000000500307047704710B500210F20FFF79C
:1016A000CBF8002400E0641C7D20C0008442FAD303
:1016B0000020FFF703F900210420FFF709F906488D
:1016C00006490860064908600320FFF7A5F80021D5
:1016D0004020FFF783F810BD0048E8010400002017
:1016E0000800002000BF0548806AC0B25528FAD122
:1016F00072B60348034908607047000000F00040DC
:10170000A095695A001A004070B505460C466869F4
:10171000C007C00F002801D1207070BD2846FFF718
:10172000A9F920700120F8E738B50446002100919E
:1017300001231A4669462046FFF762F96846007899
:1017400038BD13B5044601231A4601A92046FFF708
:1017500095F91CBDFEB505460C460A212046FEF74C
:10176000A4FDCEB20A212046FEF79FFD0A2100907B
:10177000FEF79BFDCFB264212046FEF796FD0A21BD
:101780000090FEF792FDC8B2019001983030C1B2CE
:101790002846FFF7D6FF38463030C1B22846FFF75B
:1017A000D0FF30463030C1B22846FFF7CAFFFEBD39
:1017B000F0B585B005460C460A212046FEF775FDBA
:1017C000CEB20A212046FEF770FD0A210090FEF7F6
:1017D0006CFDCFB264212046FEF767FD0A21009020
:1017E000FEF763FDC8B203907D21C9002046FEF7D5
:1017F0005CFD0A210090FEF758FDC8B20290154921
:101800002046FEF752FD0A210090FEF74EFDC8B2B9
:10181000019001983030C1B22846FFF792FF02983C
:101820003030C1B22846FFF78CFF03983030C1B288
:101830002846FFF786FF38463030C1B22846FFF70A
:1018400080FF30463030C1B22846FFF77AFF05B03E
:10185000F0BD000010270000F3B589B00C460A2146
:101860002046FEF718FD0D460A212046FEF713FD1F
:101870000A210190FEF70FFD0E4664212046FEF777
:101880000AFD0A210190FEF706FD0F467D21C900E1
:101890002046FEF700FD0A210190FEF7FCFC0891AE
:1018A00039492046FEF7F7FC0A210190FEF7F3FCC8
:1018B000079136492046FEF7EEFC0A210190FEF71B
:1018C000EAFC069132492046FEF7E5FC0A21019028
:1018D000FEF7E1FC05912F492046FEF7DCFC0A21CA
:1018E0000190FEF7D8FC04912B492046FEF7D3FC6B
:1018F0000A210190FEF7CFFC039128492046FEF70C
:10190000CAFC0A210190FEF7C6FC02910298303011
:10191000C1B20998FFF715FF03983030C1B209989A
:10192000FFF70FFF04983030C1B20998FFF709FFA5
:1019300005983030C1B20998FFF703FF06983030A0
:10194000C1B20998FFF7FDFE07983030C1B209987F
:10195000FFF7F7FE08983030C1B20998FFF7F1FEA3
:1019600038463030C1B20998FFF7EBFE30463030D0
:10197000C1B20998FFF7E5FE28463030C1B2099898
:10198000FFF7DFFE0BB0F0BD10270000A0860100BE
:1019900040420F008096980000E1F50500CA9A3B8E
:1019A000F8B507460D46012600BFB100284608419C
:1019B0000407240F092C02DD2046373001E02046C1
:1019C0003030C1B23846FFF7BCFE3046711ECEB291
:1019D0000028EAD1F8BDF8B507460D46032600BF3A
:1019E000B100284608410407240F092C02DD2046D7
:1019F000373001E020463030C1B23846FFF7A1FE53
:101A00003046711ECEB20028EAD1F8BDF8B50746BF
:101A10000D46072600BFB1002846C8400407240F22
:101A2000092C02DD2046373001E020463030C1B2BB
:101A30003846FFF786FE3046711ECEB20028EAD146
:101A4000F8BD70B506460D462C4604E02178641CAE
:101A50003046FFF776FE20780028F7D170BD0000F1
:101A600070B504460D4629462046FFF7EAFF02A15D
:101A70002046FFF7E6FF70BD0A0D000030B4744643
:101A8000641E2578641CAB4204D3635D5B00E318DD
:101A900030BC18471D46F8E710B5002819DB1A4A74
:101AA00003231B02D21883089B00D2588307DC0E45
:101AB000FF23A3409A438B071B0E8407E40EA34029
:101AC0001A43114B032424021B198408A4001A5141
:101AD00018E00E4A03071B0F083B9B089B00D258D7
:101AE0008307DC0EFF23A3409A438B071B0E84075A
:101AF000E40EA3401A43054B0407240F083CA40836
:101B0000A4001A5110BD000000E100E01CED00E04F
:101B10001CB5022201211F48FEF700FD022201210F
:101B20001C48FEF7D9FC022200211A48FEF7F6FCF9
:101B3000022200211748FEF7CFFC6846FEF7CEFED2
:101B40004B204002009069461348FEF7D7FE134829
:101B50001349086013481449086014481449086080
:101B60001448154908601548154908601548164974
:101B70000860164816490860164817490860174853
:101B8000174908601748184908601848184908603C
:101B90001CBD00000001003000410040431A00005D
:101BA00038000020611A00003C00002043170000AC
:101BB00040000020A119000050000020D7190000AB
:101BC000540000200D1A0000580000205517000096
:101BD00044000020B1170000480000205918000000
:101BE0004C000020291700005C00002009170000AD
:101BF00060000020FEB50446207A002804D00128A9
:101C000004D0022806D103E0102503E0082501E0F6
:101C1000012500BF00BF2668676829463046FEF7E9
:101C20003AFB39460090FEF736FB401E01900198C2
:101C300080B201490862FEBD005C0040FFF7D6FC9F
:101C4000FFF72AFDFEF70AFC00F000F808B5FEF7E2
:101C500035FCFEF7C9FF62B60020009002E0009854
:101C6000401C0090024900988842F8D3FFF79AF888
:101C700020A10700F8B505460C462E460027002196
:101C80000846FEF7ADFC0FE01048C1683030405CFC
:101C90003070761C0D48007B401CC006C00E0B49FE
:101CA000C8607F1C601EC4B2002C09DD0748007AA2
:101CB000C006C00E0549097BC906C90E8842E3D19A
:101CC00001210020FEF78CFC3846F8BD640000209E
:101CD000FEB504460D460D4806682F0139463046CC
:101CE000FEF7D9FA401E02900298401C7843301A41
:101CF0000090009908023946FEF7CDFA019002984B
:101D000080B220620198C0B26062FEBD2C0000204B
:101D10002A2A2A2A2A2A2A2A2A2A2A2A2A2A2A2A23
:101D20002A2A2A2A2A2A2A2A2A2A2A2A2A2A2A2A13
:101D30002A2A2A2A2A2A2A2A2A2A2A2A2A2A2A2A03
:101D40000A0D53656F756C204469676974616C2076
:101D50005761746572204D657465722050726F749E
:101D60006F636F6C2056312E33200A0D20202D20FA
:101D70004D43553A20202020202020204133314C53
:101D8000313233200A0D20202D20436F72653A2016
:101D9000202020202020436F727465782D4D302B39
:101DA000200A0D20202D2050726F746F636F6C3AE3
:101DB000202020313230306270732C20382D4E2D8F
:101DC00031200A0D54617267657420506572697024
:101DD000686572616C3A204C5055415254200A0D8E
:101DE000436F756E746572706172743A20202020A2
:101DF0002020204469676974616C205761746572A2
:101E0000204D65746572200A0D5478204461746118
:101E10003A202020202020202020202050726F7483
:101E20006F636F6C206672616D6573200A0D55419A
:101E30005254205458442050696E3A2020202020CB
:101E400020504233284C5054584429200A0D554103
:101E50005254205258442050696E3A2020202020AD
:101E600020504234284C5052584429200A0D2A2A26
:101E70002A2A2A2A2A2A2A2A2A2A2A2A2A2A2A2AC2
:101E80002A2A2A2A2A2A2A2A2A2A2A2A2A2A2A2AB2
:101E90002A2A2A2A2A2A2A2A2A2A2A2A2A2A0A0DDF
:101EA0000A0D0000C41E00000000002064000000B5
:101EB00004010000281F000064000020CC06000080
:101EC00020010000000000000000000000000000F1
:101ED0000048E8010024F40000800000409C00005D
:101EE00000000000000000000000000000000000F2
:101EF00000000000000000000000000000000000E2
:101F000000000000000000000000000000000000D1
:101F100000000000000000000000000000000000C1
:081F20000000000000000000B9
:020000041FFFDC
:10F2000073A2C869FFFF0000FFFF0000DB96FFFF4D
:10F21000FFAAFFFFFFFFFFFFFFFFFFFFFFFFFFFF53
:10F22000FFFFFFFFFFFFFFFFFFFFFFFFFFFFFFFFEE
:10F23000FFFFFFFFFFFFFFFFFFFFFFFFFFFFFFFFDE
:04F24000FFFFFFFFCE
:020000041FFFDC
:10F40000E2E2E2E2FFFFFFFFFFFFFFFFFFFFFFFF80
:10F41000FFFFFFFFFFFFFFFFFFFFFFFFFFFFFFFFFC
:10F42000FFFFFFFFFFFFFFFFFFFFFFFFFFFFFFFFEC
:10F43000FFFFFFFFFFFFFFFFFFFFFFFFFFFFFFFFDC
:10F44000FFFFFFFFFFFFFFFFFFFFFFFFFFFFFFFFCC
:10F45000FFFFFFFFFFFFFFFFFFFFFFFFFFFFFFFFBC
:10F46000FFFFFFFFFFFFFFFFFFFFFFFFFFFFFFFFAC
:10F47000FFFFFFFFFFFFFFFFFFFFFFFFE2E2E2E210
:020000041FFFDC
:10F60000E3E3E3E3FFFFFFFFFFFFFFFFFFFFFFFF7A
:10F61000FFFFFFFFFFFFFFFFFFFFFFFFFFFFFFFFFA
:10F62000FFFFFFFFFFFFFFFFFFFFFFFFFFFFFFFFEA
:10F63000FFFFFFFFFFFFFFFFFFFFFFFFFFFFFFFFDA
:10F64000FFFFFFFFFFFFFFFFFFFFFFFFFFFFFFFFCA
:10F65000FFFFFFFFFFFFFFFFFFFFFFFFFFFFFFFFBA
:10F66000FFFFFFFFFFFFFFFFFFFFFFFFFFFFFFFFAA
:10F67000FFFFFFFFFFFFFFFFFFFFFFFFE3E3E3E30A
:04000005000000C136
:00000001FF
